:100000000C942A000C9408080C9435080C9462088F
:100010000C9447000C9447000C9447000C94470044
:100020000C9447000C9447000C9447000C94470034
:100030000C9447000C9447000C9447000C94470024
:100040000C9447000C9447000C9447000C94470014
:100050000C94470011241FBECFE5D8E0DEBFCDBF12
:1000600013E0A0E6B0E0E0EEFCE302C005900D92E4
:10007000A23AB107D9F713E0A2EAB3E001C01D929A
:10008000AE3AB107E1F70E94EC1B0C946E1E0C9483
:100090000000EF92FF920F931F937B018C0120E0F1
:1000A00030E040E05FE40E94F50388238CF0C80153
:1000B000B70120E030E040E05FE40E94C1010E940F
:1000C00055049B01AC01205030404040504806C0D0
:1000D000C801B7010E9455049B01AC01B901CA01D6
:1000E0001F910F91FF90EF900895A0E0B0E0EBE733
:1000F000F0E00C94231EDC012B01FA019C9192305C
:1001000008F439C1EB018881823008F433C194309E
:1001100069F4843009F02FC111969C91119789815F
:10012000981709F428C1ACE6B0E025C1843009F481
:1001300021C18230A9F4923009F01DC19A01AD01AC
:1001400088E0EA010990AE01E90109929E0181501F
:10015000C1F7E201898111969C918923818308C1AD
:10016000923009F407C112962D903C901397EB0141
:100170008A819B811496AD90BD90CD90DC901797AD
:10018000EC80FD800E811F819101281B390BB90184
:1001900037FF04C066277727621B730B6032710537
:1001A0000CF061C0121613066CF537014801062EDB
:1001B00004C096948794779467940A94D2F721E0C8
:1001C00030E040E050E004C0220F331F441F551FB1
:1001D0006A95D2F721503040404050402E213F21B7
:1001E00040235123211531054105510521F021E01E
:1001F00030E040E050E079018A01E628F72808293C
:1002000019293CC0232BD1F1260E371E350146019A
:10021000062E04C096948794779467940A94D2F734
:1002200021E030E040E050E004C0220F331F441FC3
:10023000551F6A95D2F721503040404050402A2146
:100240003B214C215D21211531054105510521F04E
:1002500021E030E040E050E059016A01A628B728CB
:10026000C828D9280BC0821593052CF01C01AA249C
:10027000BB24650103C0EE24FF24870111969C91E5
:10028000D20111968C91981709F445C0992339F041
:10029000A80197012A193B094C095D0906C0A6016E
:1002A00095012E193F09400B510B57FD08C01182D3
:1002B0003382228224833583468357831DC081E0A5
:1002C00081833382228288279927DC01821B930B4A
:1002D000A40BB50B84839583A683B7830DC0220F2F
:1002E000331F441F551F24833583468357838281E0
:1002F000938101979383828324813581468157813D
:10030000DA01C9010197A109B1098F5F9F4FAF4F72
:10031000BF4328F30BC0918333822282EA0CFB1C7B
:100320000C1D1D1DE482F5820683178383E0808304
:10033000248135814681578157FF1AC0C901AA27F8
:1003400097FDA095BA2F81709070A070B0705695EF
:10035000479537952795822B932BA42BB52B848318
:100360009583A683B7838281938101969383828349
:10037000DF0101C0D201CD01CDB7DEB7E2E10C94BF
:100380003F1EA0E2B0E0E7ECF1E00C942F1E698381
:100390007A838B839C832D833E834F835887E9E048
:1003A000EE2EF12CEC0EFD1ECE010196B7010E943F
:1003B00046068E010F5E1F4FCE010596B8010E94C2
:1003C00046068A8991E089278A8BC701B801AE0168
:1003D000475E5F4F0E9475000E947105A096E6E09F
:1003E0000C944B1EA0E2B0E0E8EFF1E00C942F1E5D
:1003F00069837A838B839C832D833E834F835887C5
:10040000F9E0EF2EF12CEC0EFD1ECE010196B701A6
:100410000E9446068E010F5E1F4FCE010596B80161
:100420000E944606C701B801AE01475E5F4F0E94B9
:1004300075000E947105A096E6E00C944B1EA0E2A8
:10044000B0E0E5E2F2E00C94231E69837A838B83AB
:100450009C832D833E834F835887CE010196BE0136
:10046000675F7F4F0E944606CE010596BE016F5E14
:100470007F4F0E9446069985923088F089898230A4
:10048000C8F0943019F4823051F404C0843029F457
:10049000923081F48CE690E0C6C0923049F420E0BE
:1004A0009A858A89981321E02A87CE010996BBC0D4
:1004B000823049F420E09A858A89981321E02A8BBA
:1004C000CE014196B0C02D843E844F8458886D88FB
:1004D0007E888F88988CEE24FF248701AA24BB2471
:1004E000650140E050E060E070E0E0E0F0E0C10174
:1004F00081709070892BE9F0E60CF71C081D191D1E
:100500009A01AB012A0D3B1D4C1D5D1D80E090E062
:10051000A0E0B0E0E614F7040805190520F481E036
:1005200090E0A0E0B0E0BA01A901480F591F6A1F8E
:100530007B1FAA0CBB1CCC1CDD1C97FE08C081E0F5
:1005400090E0A0E0B0E0A82AB92ACA2ADB2A3196B6
:10055000E032F10549F0660C771C881C991C569412
:10056000479437942794C3CFFA85EA892B893C892D
:100570008B859C85280F391F2E5F3F4F17C0CA01FE
:1005800081709070892B61F016950795F794E79428
:1005900080E090E0A0E0B0E8E82AF92A0A2B1B2BC3
:1005A00076956795579547952F5F3F4F77FDE7CF36
:1005B0000CC0440F551F661F771F17FD4160EE0CDE
:1005C000FF1C001F111F21503040403090E05907A0
:1005D00090E0690790E4790760F32B8F3C8FDB0193
:1005E000CA018F779070A070B07080349105A1051A
:1005F000B10561F447FD0AC0E114F10401051105DC
:1006000029F0405C5F4F6F4F7F4F40781A8EFE1786
:1006100011F081E08A8F4D8F5E8F6F8F78A383E01A
:10062000898FCE0149960E947105A096E2E10C9453
:100630003F1EA8E1B0E0EFE1F3E00C942B1E6983CC
:100640007A838B839C832D833E834F835887B9E0C5
:10065000EB2EF12CEC0EFD1ECE010196B7010E948F
:1006600046068E010F5E1F4FCE010596B8010E940F
:1006700046062985223008F47EC03989323010F4CC
:10068000B8017CC08A859A8989278A87243011F02D
:10069000223031F4231709F06EC06CE670E06EC0B2
:1006A000343039F41D861E861F86188A1C861B86E8
:1006B00004C0323021F484E08987B7015FC02B8504
:1006C0003C858B899C89281B390B3C872B87ED84C3
:1006D000FE840F851889AD88BE88CF88D88CEA142F
:1006E000FB040C051D0540F4EE0CFF1C001F111F40
:1006F000215030403C872B8720E030E040E050E044
:1007000080E090E0A0E0B0E460E070E0EA14FB0478
:100710000C051D0540F0282B392B4A2B5B2BEA18C2
:10072000FB080C091D09B695A79597958795EE0CC2
:10073000FF1C001F111F6F5F7F4F6F31710531F775
:10074000DA01C9018F779070A070B0708034910584
:10075000A105B10561F427FD0AC0E114F10401050A
:10076000110529F0205C3F4F4F4F5F4F20782D87B8
:100770003E874F87588BBE01675F7F4FCB010E943A
:1007800071056896EAE00C94471EA8E1B0E0EBEC36
:10079000F3E00C942F1E69837A838B839C832D83D3
:1007A0003E834F83588789E0E82EF12CEC0EFD1E26
:1007B000CE010196B7010E9446068E010F5E1F4FC3
:1007C000CE010596B8010E9446068985823040F028
:1007D0008989823028F0C701B8010E94BE0601C095
:1007E0008FEF6896E6E00C944B1EA8E1B0E0EBEFCB
:1007F000F3E00C942F1E69837A838B839C832D8373
:100800003E834F83588789E0E82EF12CEC0EFD1EC5
:10081000CE010196B7010E9446068E010F5E1F4F62
:10082000CE010596B8010E9446068985823040F0C7
:100830008989823028F0C701B8010E94BE0601C034
:100840008FEF6896E6E00C944B1EA8E1B0E0EBE277
:10085000F4E00C942F1E69837A838B839C832D8311
:100860003E834F83588789E0E82EF12CEC0EFD1E65
:10087000CE010196B7010E9446068E010F5E1F4F02
:10088000CE010596B8010E9446068985823040F067
:100890008989823028F0C701B8010E94BE0601C0D4
:1008A00081E06896E6E00C944B1EACE0B0E0EBE52E
:1008B000F4E00C94331E69837A838B839C83CE018E
:1008C0000196BE016B5F7F4F0E9446068D8182308C
:1008D00061F1823050F1843021F48E81882351F10E
:1008E0002EC02F81388537FD20C06E812F31310514
:1008F0001CF06623F9F023C08EE190E0821B930B7D
:1009000029853A854B855C8504C056954795379572
:1009100027958A95D2F76623B1F05095409530958A
:1009200021953F4F4F4F5F4F0EC020E030E040E039
:1009300050E009C02FEF3FEF4FEF5FE704C020E02A
:1009400030E040E050E8B901CA012C96E2E00C9496
:100950004F1EA8E0B0E0EFEAF4E00C942B1E7B0100
:100960008C01611571058105910519F482E0898377
:1009700060C083E089838EE1C82ED12CDC82CB82DB
:10098000ED82FE820F831887C801B7010E942205FD
:10099000FC013197F7FF3BC0222733272E1B3F0B6B
:1009A00057016801022E04C0D694C794B794A79447
:1009B0000A94D2F740E050E060E070E081E090E01F
:1009C000A0E0B0E004C0880F991FAA1FBB1F2A95A2
:1009D000D2F70197A109B1098E219F21A023B1234C
:1009E0000097A105B10521F041E050E060E070E022
:1009F0004A295B296C297D294D835E836F83788723
:100A00008EE190E08E1B9F0B9C838B8312C03097EE
:100A100081F00E2E04C0EE0CFF1C001F111F0A9463
:100A2000D2F7ED82FE820F831887CE1ADF0ADC82AE
:100A3000CB821A82CE0101960E9471052896EAE0C7
:100A40000C94471EEF92FF920F931F937B018C0132
:100A500080E0E81680E0F80681E0080780E01807EB
:100A600088F48FEFE816F1040105110531F028F044
:100A700088E090E0A0E0B0E017C080E090E0A0E067
:100A8000B0E012C080E0E81680E0F80680E00807D9
:100A900081E0180728F088E190E0A0E0B0E004C011
:100AA00080E190E0A0E0B0E020E230E040E050E003
:100AB000281B390B4A0B5B0B04C016950795F7945E
:100AC000E7948A95D2F7F701EC58FF4F8081281BF5
:100AD000310941095109C9011F910F91FF90EF9010
:100AE0000895DF92EF92FF920F931F93FC01E48031
:100AF000F58006811781D1808081823048F480E0C2
:100B000090E0A0E1B0E0E82AF92A0A2B1B2BA5C04F
:100B1000843009F49FC0823021F4EE24FF24870141
:100B200005C0E114F1040105110519F4E0E0F0E05D
:100B300096C0628173819FEF623879070CF05BC0C9
:100B400022E83FEF261B370B2A3131052CF020E03D
:100B500030E040E050E02AC0B801A701022E04C0F6
:100B600076956795579547950A94D2F781E090E07E
:100B7000A0E0B0E004C0880F991FAA1FBB1F2A95F0
:100B8000D2F70197A109B1098E219F21A023B1239A
:100B90000097A105B10521F081E090E0A0E0B0E070
:100BA0009A01AB01282B392B4A2B5B2BDA01C901A7
:100BB0008F779070A070B07080349105A105B10559
:100BC00039F427FF09C0205C3F4F4F4F5F4F04C0EF
:100BD000215C3F4F4F4F5F4FE0E0F0E02030A0E05E
:100BE0003A07A0E04A07A0E45A0710F0E1E0F0E07D
:100BF00079018A0127C06038710564F5FB01E1586D
:100C0000FF4FD801C7018F779070A070B07080340B
:100C10009105A105B10539F4E7FE0DC080E490E02F
:100C2000A0E0B0E004C08FE390E0A0E0B0E0E80E08
:100C3000F91E0A1F1B1F17FF05C016950795F7948D
:100C4000E794319687E016950795F794E7948A958F
:100C5000D1F705C0EE24FF248701EFEFF0E06E2FFF
:100C6000679566276795902F9F77D794DD24D79453
:100C70008E2F8695492F462B582F5D29B701CA0123
:100C80001F910F91FF90EF90DF900895FC01DB0121
:100C9000408151812281622F6F7770E0221F2227CD
:100CA000221F9381892F880F822B282F30E0991FD4
:100CB0009927991F11969C93119721153105A9F534
:100CC000411551056105710511F482E037C082E8D4
:100CD0009FEF13969C938E9312979A01AB0167E056
:100CE000220F331F441F551F6A95D1F783E08C9361
:100CF0000DC0220F331F441F551F12968D919C91DA
:100D00001397019713969C938E931297203080E04F
:100D1000380780E0480780E4580758F314962D936D
:100D20003D934D935C93179708952F3F310579F4C8
:100D3000411551056105710519F484E08C930895FE
:100D400064FF03C081E08C9312C01C9210C02F5727
:100D5000304013963C932E93129783E08C9387E058
:100D6000440F551F661F771F8A95D1F7706414963C
:100D70004D935D936D937C93179708951F93DC01BA
:100D8000FB019C91923008F447C08081823008F4C6
:100D900043C0943051F411961C91843099F58181AF
:100DA000682F70E0611B71093FC0843021F09230E0
:100DB00031F48230B9F18181882389F12DC01196F7
:100DC0001C9111978230F1F081811817D9F4129695
:100DD0002D913C911397828193818217930794F010
:100DE00028173907BCF014968D919D910D90BC91F8
:100DF000A02D2481358146815781281739074A075C
:100E00005B0718F4112341F00AC082179307A40767
:100E1000B50740F4112319F061E070E005C06FEFF1
:100E20007FEF02C060E070E0CB011F910895FB01ED
:100E30009F01E8944230C4F04532B4F44A3029F4BA
:100E400097FB1EF4909581959F4F642F77270E9402
:100E50005A1E805D8A330CF0895D8193CB01009727
:100E6000A1F716F45DE251931082C9010C94380782
:100E7000DC01FC01672F71917723E1F7329704C001
:100E80007C916D9370836291AE17BF07C8F308958C
:100E9000DF93CF93CDB7DEB7AFE4B0E0EFE4F0E09F
:100EA00080818E7F8C93AFE4B0E0EFE4F0E080814E
:100EB0008D7F8C93AFE4B0E0EFE4F0E08081886058
:100EC0008C93AFE4B0E0EFE4F0E080818F7B8C9313
:100ED000AFE4B0E0EFE4F0E080818F778C93AFE493
:100EE000B0E0EFE4F0E0808181608C93AFE4B0E0AB
:100EF000EFE4F0E080818D7F8C93AFE4B0E0EFE42D
:100F0000F0E080818B7F8C93CF91DF910895DF9308
:100F1000CF93CDB7DEB7AFE4B0E0EFE4F0E080818F
:100F200083628C93AEE4B0E0EEE4F0E0808189600F
:100F30008C93EAE4F0E080E293E091838083E8E43C
:100F4000F0E011821082CF91DF910895DF93CF936B
:100F5000CDB7DEB7ABE5B0E0EBE5F0E080818064D3
:100F60008C93A5E5B0E0E5E5F0E080818D7F8C9382
:100F7000A5E5B0E0E5E5F0E0808181608C93ABE52C
:100F8000B0E0EBE5F0E080818F7B8C93A5E5B0E0ED
:100F9000E5E5F0E080818D7F8C93A5E5B0E0E5E5A7
:100FA000F0E0808181608C93ABE5B0E0EBE5F0E0B0
:100FB00080818F7B8C93A5E5B0E0E5E5F0E0808152
:100FC0008D7F8C93A5E5B0E0E5E5F0E08081816060
:100FD0008C93CF91DF910895DF93CF93CDB7DEB798
:100FE000ABE5B0E0EBE5F0E0808180648C93A5E5B3
:100FF000B0E0E5E5F0E0808181608C93A5E5B0E0AC
:10100000E5E5F0E080818D7F8C93CF91DF910895AD
:101010001F920F920FB60F9211242F933F934F936D
:101020005F936F937F938F939F93AF93BF93EF9350
:10103000FF93DF93CF93CDB7DEB7E091A203F0919A
:10104000A3030995CF91DF91FF91EF91BF91AF91EC
:101050009F918F917F916F915F914F913F912F91D0
:101060000F900FBE0F901F9018951F920F920FB602
:101070000F9211242F933F934F935F936F937F931E
:101080008F939F93AF93BF93EF93FF93DF93CF9390
:10109000CDB7DEB7E091A203F091A3030995CF91FC
:1010A000DF91FF91EF91BF91AF919F918F917F91D0
:1010B0006F915F914F913F912F910F900FBE0F90C5
:1010C0001F9018951F920F920FB60F9211242F9315
:1010D0003F934F935F936F937F938F939F93AF93C0
:1010E000BF93EF93FF93DF93CF93CDB7DEB7E0913C
:1010F000A203F091A3030995CF91DF91FF91EF91A6
:10110000BF91AF919F918F917F916F915F914F911F
:101110003F912F910F900FBE0F901F901895DF9366
:10112000CF9300D0CDB7DEB79A83898389819A8126
:101130009093A3038093A2030F900F90CF91DF9120
:101140000895DF93CF9300D0CDB7DEB79A8389831C
:1011500089819A819093A3038093A2030F900F90AB
:10116000CF91DF910895DF93CF9300D0CDB7DEB755
:101170009A83898389819A819093A3038093A203A0
:101180000F900F90CF91DF910895DF93CF9300D010
:1011900000D000D0CDB7DEB78B836C838B81869572
:1011A000869586958A838B81877089838A81282F8B
:1011B00030E03E832D838D819E818130910509F43D
:1011C00043C02D813E81223031052CF48D819E81DA
:1011D000009771F0BCC02D813E812230310509F4A9
:1011E0005FC08D819E818330910509F485C0AFC0B9
:1011F0008C818130A1F4ABE3B0E0EBE3F0E08081DF
:10120000482F8981282F30E081E090E0022E02C033
:10121000880F991F0A94E2F7842B8C9398C0ABE354
:10122000B0E0EBE3F0E08081482F8981282F30E0A7
:1012300081E090E0022E02C0880F991F0A94E2F725
:10124000809584238C9383C08C818130A1F4A8E3A2
:10125000B0E0E8E3F0E08081482F8981282F30E07A
:1012600081E090E0022E02C0880F991F0A94E2F7F5
:10127000842B8C936CC0A8E3B0E0E8E3F0E08081BD
:10128000482F8981282F30E081E090E0022E02C0B3
:10129000880F991F0A94E2F7809584238C9357C096
:1012A0008C818130A1F4A5E3B0E0E5E3F0E080813A
:1012B000482F8981282F30E081E090E0022E02C083
:1012C000880F991F0A94E2F7842B8C9340C0A5E302
:1012D000B0E0E5E3F0E08081482F8981282F30E0FD
:1012E00081E090E0022E02C0880F991F0A94E2F775
:1012F000809584238C932BC08C818130A1F4A2E350
:10130000B0E0E2E3F0E08081482F8981282F30E0CF
:1013100081E090E0022E02C0880F991F0A94E2F744
:10132000842B8C9314C0A2E3B0E0E2E3F0E0808170
:10133000482F8981282F30E081E090E0022E02C002
:10134000880F991F0A94E2F7809584238C93269640
:101350000FB6F894DEBF0FBECDBFCF91DF910895D9
:10136000DF93CF9300D000D000D0CDB7DEB78C8311
:101370008C818695869586958B838C8187708A83F0
:1013800019828B81282F30E03E832D834D815E8131
:101390004130510541F18D819E818230910534F4B7
:1013A0002D813E812115310561F053C04D815E8153
:1013B0004230510551F18D819E8183309105B9F103
:1013C00048C0E9E3F0E08081282F30E08A81882F4F
:1013D00090E0A90102C0559547958A95E2F7CA01A8
:1013E0008170898338C0E6E3F0E08081282F30E007
:1013F0008A81882F90E0A90102C0559547958A956A
:10140000E2F7CA018170898326C0E3E3F0E08081BE
:10141000282F30E08A81882F90E0A90102C05595DD
:1014200047958A95E2F7CA018170898314C0E0E389
:10143000F0E08081282F30E08A81882F90E0A90198
:1014400002C0559547958A95E2F7CA018170898354
:1014500002C08FEF8983898126960FB6F894DEBF8C
:101460000FBECDBFCF91DF910895DF93CF9300D012
:1014700000D0CDB7DEB71A82198257C129813A81CF
:10148000C901880F991F820F931FFC01EC58FE4F72
:101490008081282F30E03C832B838B819C8181309D
:1014A000910509F461C02B813C81223031052CF477
:1014B0008B819C81009771F033C12B813C8122305C
:1014C000310509F49BC08B819C818330910509F41F
:1014D000DFC026C129813A81C901880F991F820F77
:1014E000931FFC01EA58FE4F80818130F1F4AAE39A
:1014F000B0E0EAE3F0E08081482F29813A81C90118
:10150000880F991F820F931FFC01EB58FE4F8081BB
:10151000282F30E081E090E0022E02C0880F991F52
:101520000A94E2F7842B8C93FBC0AAE3B0E0EAE3D1
:10153000F0E08081482F29813A81C901880F991FE5
:10154000820F931FFC01EB58FE4F8081282F30E063
:1015500081E090E0022E02C0880F991F0A94E2F702
:10156000809584238C93DCC029813A81C901880F3E
:10157000991F820F931FFC01EA58FE4F8081813032
:10158000F1F4A7E3B0E0E7E3F0E08081482F2981A0
:101590003A81C901880F991F820F931FFC01EB58F4
:1015A000FE4F8081282F30E081E090E0022E02C0C3
:1015B000880F991F0A94E2F7842B8C93B1C0A7E39C
:1015C000B0E0E7E3F0E08081482F29813A81C9014A
:1015D000880F991F820F931FFC01EB58FE4F8081EB
:1015E000282F30E081E090E0022E02C0880F991F82
:1015F0000A94E2F7809584238C9392C029813A81E2
:10160000C901880F991F820F931FFC01EA58FE4FF2
:1016100080818130F1F4A4E3B0E0E4E3F0E0808184
:10162000482F29813A81C901880F991F820F931F82
:10163000FC01EB58FE4F8081282F30E081E090E0E4
:10164000022E02C0880F991F0A94E2F7842B8C9314
:1016500067C0A4E3B0E0E4E3F0E08081482F298193
:101660003A81C901880F991F820F931FFC01EB5823
:10167000FE4F8081282F30E081E090E0022E02C0F2
:10168000880F991F0A94E2F7809584238C9348C0B1
:1016900029813A81C901880F991F820F931FFC018C
:1016A000EA58FE4F80818130F1F4A1E3B0E0E1E33C
:1016B000F0E08081482F29813A81C901880F991F64
:1016C000820F931FFC01EB58FE4F8081282F30E0E2
:1016D00081E090E0022E02C0880F991F0A94E2F781
:1016E000842B8C931DC0A1E3B0E0E1E3F0E08081A6
:1016F000482F29813A81C901880F991F820F931FB2
:10170000FC01EB58FE4F8081282F30E081E090E013
:1017100002C0880F991F2A95E2F7809584238C9345
:1017200089819A8101969A8389832091AA013091B7
:10173000AB0189819A81821793070CF49FCE0F9099
:101740000F900F900F90CF91DF9108950F931F93FB
:10175000DF93CF93CDB7DEB7C156D0400FB6F89424
:10176000DEBF0FBECDBFFE01EF59FF4F808389E082
:1017700061E00E94C5088AE060E00E94C508FE01A1
:10178000EF59FF4F808182958F70882F90E0817094
:101790009070882329F084E061E00E94C50804C0AD
:1017A00084E060E00E94C508FE01EF59FF4F808190
:1017B000829586958770882F90E08170907088233D
:1017C00029F085E061E00E94C50804C085E060E082
:1017D0000E94C508FE01EF59FF4F808182958695D2
:1017E00086958370882F90E081709070882329F00F
:1017F00086E061E00E94C50804C086E060E00E94C7
:10180000C508FE01EF59FF4F808188232CF487E043
:1018100061E00E94C50804C087E060E00E94C5083E
:101820008BE061E00E94C508FE01E35AFF4F80E0B3
:1018300090E0A0E2B1E480839183A283B3838E0120
:10184000075A1F4FFE01E35AFF4F60817181828169
:1018500093812BEA3AEA4AEA50E40E941F02DC0133
:10186000CB01F80180839183A283B383FE01E75A01
:10187000FF4F608171818281938120E030E040E8F8
:101880005FE30E942504882334F4FE01E85AFF4FE9
:1018900081E08083E0C0FE01E75AFF4F60817181E3
:1018A0008281938120E030E04FE753E40E94C5033A
:1018B00018160CF0C0C0FE01E35AFF4F6081718121
:1018C0008281938120E030E04AE754E40E941903CA
:1018D000DC01CB01FE01EC5AFF4F80839183A28390
:1018E000B3838E01005B1F4FFE01EC5AFF4F6081F6
:1018F00071818281938120E030E04AE755E40E94C3
:101900001F02DC01CB01F80180839183A283B383A2
:10191000FE01E05BFF4F608171818281938120E055
:1019200030E040E85FE30E942504882344F4FE0190
:10193000E25BFF4F81E090E09183808364C0FE0111
:10194000E05BFF4F608171818281938120E03FEFF6
:101950004FE757E40E94C50318160CF043C0FE0180
:10196000EC5AFF4F608171818281938120E030E0E9
:1019700040E251E40E941F02DC01CB018E01025BB8
:101980001F4FBC01CD010E944900DC01CB01F801D1
:10199000918380831FC0FE01E45BFF4F80E991E0EB
:1019A00091838083FE01E45BFF4F808191810197E9
:1019B000F1F7FE01E45BFF4F91838083DE01A25BC0
:1019C000BF4FFE01E25BFF4F80819181019711962D
:1019D0009C938E93FE01E25BFF4F80819181009783
:1019E000D1F64BC08E01025B1F4FFE01E05BFF4F43
:1019F00060817181828193810E944900DC01CB0169
:101A0000F80191838083DE01A65BBF4FFE01E25B9C
:101A1000FF4F8081918111969C938E93FE01E65B2E
:101A2000FF4F808191810197F1F7FE01E65BFF4F47
:101A30009183808322C08E01085A1F4FFE01E75A0E
:101A4000FF4F60817181828193810E944900DC0196
:101A5000CB01F8018083DE01A75BBF4FFE01E85A8E
:101A6000FF4F80818C93FE01E75BFF4F80818A9559
:101A7000F1F7FE01E75BFF4F80838BE060E00E949F
:101A8000C508FE01EB5BFF4F80E090E0A8E4B3E403
:101A900080839183A283B3838E010F5B1F4FFE016E
:101AA000EB5BFF4F60817181828193812BEA3AEA7F
:101AB0004AEA50E40E941F02DC01CB01F801808356
:101AC0009183A283B383FE01EF5BFF4F608171813D
:101AD0008281938120E030E040E85FE30E942504AA
:101AE000882334F481E0FE01E05CFF4F80839DC0D9
:101AF000FE01EF5BFF4F608171818281938120E065
:101B000030E04FE753E40E94C50318160CF07EC086
:101B1000FE01EB5BFF4F608171818281938120E048
:101B200030E04AE754E40E941903DC01CB018CAF9A
:101B30009DAFAEAFBFAF6CAD7DAD8EAD9FAD20E0C4
:101B400030E04AE755E40E941F02DC01CB0188AF78
:101B500099AFAAAFBBAF68AD79AD8AAD9BAD20E0C0
:101B600030E040E85FE30E94250488232CF481E004
:101B700090E09FAB8EAB3FC068AD79AD8AAD9BADB9
:101B800020E03FEF4FE757E40E94C50318164CF5DD
:101B90006CAD7DAD8EAD9FAD20E030E040E251E414
:101BA0000E941F02DC01CB01BC01CD010E94490053
:101BB000DC01CB019FAB8EAB0FC080E991E09DAB08
:101BC0008CAB8CA99DA90197F1F79DAB8CAB8EA92D
:101BD0009FA901979FAB8EAB8EA99FA9009769F72C
:101BE0002DC068AD79AD8AAD9BAD0E944900DC0186
:101BF000CB019FAB8EAB8EA99FA99BAB8AAB8AA969
:101C00009BA90197F1F79BAB8AAB18C0FE01EF5B74
:101C1000FF4F60817181828193810E944900DC01C4
:101C2000CB01FE01E05CFF4F8083FE01E05CFF4FD3
:101C3000808189AB89A98A95F1F789ABFE01EF59BB
:101C4000FF4F8081882F90E081709070882329F069
:101C500084E061E00E94C50804C084E060E00E9466
:101C6000C508FE01EF59FF4F80818695882F90E0CF
:101C700081709070882329F085E061E00E94C5089A
:101C800004C085E060E00E94C508FE01EF59FF4FE7
:101C9000808186958695882F90E08170907088234A
:101CA00029F086E061E00E94C50804C086E060E09B
:101CB0000E94C508FE01EF59FF4F808186958695E9
:101CC0008695882F90E081709070882329F087E0B6
:101CD00061E00E94C50804C087E060E00E94C5087A
:101CE0008BE061E00E94C50880E090E0A0E2B1E4F2
:101CF0008DA79EA7AFA7B8AB6DA57EA58FA598A908
:101D00002BEA3AEA4AEA50E40E941F02DC01CB01C6
:101D100089A79AA7ABA7BCA769A57AA58BA59CA5FF
:101D200020E030E040E85FE30E94250488231CF4B3
:101D300081E088A791C069A57AA58BA59CA520E024
:101D400030E04FE753E40E94C50318160CF07BC047
:101D50006DA57EA58FA598A920E030E04AE754E460
:101D60000E941903DC01CB018CA39DA3AEA3BFA3EA
:101D70006CA17DA18EA19FA120E030E04AE755E44F
:101D80000E941F02DC01CB0188A399A3AAA3BBA3D5
:101D900068A179A18AA19BA120E030E040E85FE33F
:101DA0000E94250488232CF481E090E09F8F8E8F81
:101DB0003FC068A179A18AA19BA120E03FEF4FE736
:101DC00057E40E94C50318164CF56CA17DA18EA1A5
:101DD0009FA120E030E040E251E40E941F02DC01BC
:101DE000CB01BC01CD010E944900DC01CB019F8FDA
:101DF0008E8F0FC080E991E09D8F8C8F8C8D9D8D93
:101E00000197F1F79D8F8C8F8E8D9F8D01979F8FFE
:101E10008E8F8E8D9F8D009769F724C068A179A160
:101E20008AA19BA10E944900DC01CB019F8F8E8F6C
:101E30008E8D9F8D9B8F8A8F8A8D9B8D0197F1F759
:101E40009B8F8A8F0FC069A57AA58BA59CA50E9440
:101E50004900DC01CB0188A788A5898F898D8A95E7
:101E6000F1F7898F8BE060E00E94C50880E090E088
:101E7000A8E4B3E48D8B9E8BAF8BB88F6D897E8980
:101E80008F89988D2BEA3AEA4AEA50E40E941F02B1
:101E9000DC01CB01898B9A8BAB8BBC8B69897A89EE
:101EA0008B899C8920E030E040E85FE30E942504B4
:101EB00088231CF481E0888B91C069897A898B8999
:101EC0009C8920E030E04FE753E40E94C5031816D8
:101ED0000CF07BC06D897E898F89988D20E030E081
:101EE0004AE754E40E941903DC01CB018C879D87EB
:101EF000AE87BF876C857D858E859F8520E030E02D
:101F00004AE755E40E941F02DC01CB0188879987CC
:101F1000AA87BB87688579858A859B8520E030E024
:101F200040E85FE30E94250488232CF481E090E0E0
:101F30009F838E833FC0688579858A859B8520E055
:101F40003FEF4FE757E40E94C50318164CF56C8528
:101F50007D858E859F8520E030E040E251E40E943F
:101F60001F02DC01CB01BC01CD010E944900DC0154
:101F7000CB019F838E830FC080E991E09D838C838A
:101F80008C819D810197F1F79D838C838E819F8148
:101F900001979F838E838E819F81009769F724C06C
:101FA000688579858A859B850E944900DC01CB0183
:101FB0009F838E838E819F819B838A838A819B816D
:101FC0000197F1F79B838A830FC069897A898B898E
:101FD0009C890E944900DC01CB01888B8889898318
:101FE00089818A95F1F78983CF59DF4F0FB6F8942D
:101FF000DEBF0FBECDBFCF91DF911F910F9108952E
:102000000F931F93DF93CF93CDB7DEB7C156D04068
:102010000FB6F894DEBF0FBECDBFFE01EF59FF4FE4
:10202000808389E060E00E94C5088AE060E00E9449
:10203000C508FE01EF59FF4F808182958F70882F70
:1020400090E081709070882329F084E061E00E9424
:10205000C50804C084E060E00E94C508FE01EF5995
:10206000FF4F8081829586958770882F90E08170E0
:102070009070882329F085E061E00E94C50804C0C3
:1020800085E060E00E94C508FE01EF59FF4F8081A6
:102090008295869586958370882F90E081709070E8
:1020A000882329F086E061E00E94C50804C086E02C
:1020B00060E00E94C508FE01EF59FF4F8081882330
:1020C0002CF487E061E00E94C50804C087E060E06E
:1020D0000E94C5088BE061E00E94C508FE01E35A3A
:1020E000FF4F80E090E0A0E2B1E480839183A2837F
:1020F000B3838E01075A1F4FFE01E35AFF4F6081E1
:102100007181828193812BEA3AEA4AEA50E40E9483
:102110001F02DC01CB01F80180839183A283B3838A
:10212000FE01E75AFF4F608171818281938120E037
:1021300030E040E85FE30E942504882334F4FE0188
:10214000E85AFF4F81E08083E0C0FE01E75AFF4F6D
:10215000608171818281938120E030E04FE753E418
:102160000E94C50318160CF0C0C0FE01E35AFF4FD1
:10217000608171818281938120E030E04AE754E4FC
:102180000E941903DC01CB01FE01EC5AFF4F808352
:102190009183A283B3838E01005B1F4FFE01EC5A33
:1021A000FF4F608171818281938120E030E04AE7B6
:1021B00055E40E941F02DC01CB01F801808391836A
:1021C000A283B383FE01E05BFF4F60817181828156
:1021D000938120E030E040E85FE30E9425048823FB
:1021E00044F4FE01E25BFF4F81E090E09183808345
:1021F00064C0FE01E05BFF4F608171818281938149
:1022000020E03FEF4FE757E40E94C50318160CF09B
:1022100043C0FE01EC5AFF4F60817181828193813E
:1022200020E030E040E251E40E941F02DC01CB01DB
:102230008E01025B1F4FBC01CD010E944900DC01F1
:10224000CB01F801918380831FC0FE01E45BFF4F47
:1022500080E991E091838083FE01E45BFF4F808100
:1022600091810197F1F7FE01E45BFF4F9183808339
:10227000DE01A25BBF4FFE01E25BFF4F80819181D7
:10228000019711969C938E93FE01E25BFF4F808134
:1022900091810097D1F64BC08E01025B1F4FFE016A
:1022A000E05BFF4F60817181828193810E944900D0
:1022B000DC01CB01F80191838083DE01A65BBF4F77
:1022C000FE01E25BFF4F8081918111969C938E937A
:1022D000FE01E65BFF4F808191810197F1F7FE01DE
:1022E000E65BFF4F9183808322C08E01085A1F4F07
:1022F000FE01E75AFF4F60817181828193810E94C4
:102300004900DC01CB01F8018083DE01A75BBF4FF0
:10231000FE01E85AFF4F80818C93FE01E75BFF4F7F
:1023200080818A95F1F7FE01E75BFF4F80838BE0A8
:1023300060E00E94C508FE01EB5BFF4F80E090E08B
:10234000AAEFB4E480839183A283B3838E010F5BF1
:102350001F4FFE01EB5BFF4F608171818281938192
:102360002BEA3AEA4AEA50E40E941F02DC01CB0160
:10237000F80180839183A283B383FE01EF5BFF4F5B
:10238000608171818281938120E030E040E85FE3E9
:102390000E942504882334F481E0FE01E05CFF4FB5
:1023A00080839DC0FE01EF5BFF4F60817181828160
:1023B000938120E030E04FE753E40E94C5031816F4
:1023C0000CF07EC0FE01EB5BFF4F6081718182816A
:1023D000938120E030E04AE754E40E941903DC01D5
:1023E000CB018CAF9DAFAEAFBFAF6CAD7DAD8EAD51
:1023F0009FAD20E030E04AE755E40E941F02DC0177
:10240000CB0188AF99AFAAAFBBAF68AD79AD8AAD4C
:102410009BAD20E030E040E85FE30E942504882384
:102420002CF481E090E09FAB8EAB3FC068AD79ADFE
:102430008AAD9BAD20E03FEF4FE757E40E94C50314
:1024400018164CF56CAD7DAD8EAD9FAD20E030E043
:1024500040E251E40E941F02DC01CB01BC01CD012E
:102460000E944900DC01CB019FAB8EAB0FC080E91D
:1024700091E09DAB8CAB8CA99DA90197F1F79DAB29
:102480008CAB8EA99FA901979FAB8EAB8EA99FA9FC
:10249000009769F72DC068AD79AD8AAD9BAD0E94FC
:1024A0004900DC01CB019FAB8EAB8EA99FA99BABF2
:1024B0008AAB8AA99BA90197F1F79BAB8AAB18C09D
:1024C000FE01EF5BFF4F60817181828193810E94E9
:1024D0004900DC01CB01FE01E05CFF4F8083FE017F
:1024E000E05CFF4F808189AB89A98A95F1F789ABC0
:1024F000FE01EF59FF4F8081882F90E0817090702E
:10250000882329F084E061E00E94C50804C084E0CB
:1025100060E00E94C508FE01EF59FF4F808186955B
:10252000882F90E081709070882329F085E061E029
:102530000E94C50804C085E060E00E94C508FE0155
:10254000EF59FF4F808186958695882F90E08170A6
:102550009070882329F086E061E00E94C50804C0DD
:1025600086E060E00E94C508FE01EF59FF4F8081C0
:10257000869586958695882F90E081709070882347
:1025800029F087E061E00E94C50804C087E060E0B0
:102590000E94C5088BE061E00E94C50880E090E0E1
:1025A000A0E2B1E48DA79EA7AFA7B8AB6DA57EA5AD
:1025B0008FA598A92BEA3AEA4AEA50E40E941F0242
:1025C000DC01CB0189A79AA7ABA7BCA769A57AA50F
:1025D0008BA59CA520E030E040E85FE30E94250445
:1025E00088231CF481E088A791C069A57AA58BA5F2
:1025F0009CA520E030E04FE753E40E94C503181685
:102600000CF07BC06DA57EA58FA598A920E030E0D9
:102610004AE754E40E941903DC01CB018CA39DA37B
:10262000AEA3BFA36CA17DA18EA19FA120E030E04D
:102630004AE755E40E941F02DC01CB0188A399A35D
:10264000AAA3BBA368A179A18AA19BA120E030E045
:1026500040E85FE30E94250488232CF481E090E0A9
:102660009F8F8E8F3FC068A179A18AA19BA120E096
:102670003FEF4FE757E40E94C50318164CF56CA1D5
:102680007DA18EA19FA120E030E040E251E40E94B4
:102690001F02DC01CB01BC01CD010E944900DC011D
:1026A000CB019F8F8E8F0FC080E991E09D8F8C8F23
:1026B0008C8D9D8D0197F1F79D8F8C8F8E8D9F8DC9
:1026C00001979F8F8E8F8E8D9F8D009769F724C005
:1026D00068A179A18AA19BA10E944900DC01CB01DC
:1026E0009F8F8E8F8E8D9F8D9B8F8A8F8A8D9B8DD6
:1026F0000197F1F79B8F8A8F0FC069A57AA58BA5EB
:102700009CA50E944900DC01CB0188A788A5898F80
:10271000898D8A95F1F7898F8BE060E00E94C5086A
:1027200080E090E0AAEFB4E48D8B9E8BAF8BB88FE6
:102730006D897E898F89988D2BEA3AEA4AEA50E4BE
:102740000E941F02DC01CB01898B9A8BAB8BBC8B67
:1027500069897A898B899C8920E030E040E85FE3D1
:102760000E94250488231CF481E0888B91C069892C
:102770007A898B899C8920E030E04FE753E40E94FE
:10278000C50318160CF07BC06D897E898F89988DE2
:1027900020E030E04AE754E40E941903DC01CB0159
:1027A0008C879D87AE87BF876C857D858E859F854D
:1027B00020E030E04AE755E40E941F02DC01CB0133
:1027C00088879987AA87BB87688579858A859B854D
:1027D00020E030E040E85FE30E94250488232CF4E9
:1027E00081E090E09F838E833FC0688579858A85EC
:1027F0009B8520E03FEF4FE757E40E94C503181682
:102800004CF56C857D858E859F8520E030E040E22B
:1028100051E40E941F02DC01CB01BC01CD010E94EA
:102820004900DC01CB019F838E830FC080E991E0DA
:102830009D838C838C819D810197F1F79D838C838F
:102840008E819F8101979F838E838E819F810097C8
:1028500069F724C0688579858A859B850E9449002F
:10286000DC01CB019F838E838E819F819B838A8332
:102870008A819B810197F1F79B838A830FC06989C5
:102880007A898B899C890E944900DC01CB01888B65
:102890008889898389818A95F1F78983CF59DF4FA8
:1028A0000FB6F894DEBF0FBECDBFCF91DF911F9161
:1028B0000F910895DF93CF93CDB7DEB72E970FB664
:1028C000F894DEBF0FBECDBF80E090E0A0EAB1E497
:1028D0008B879C87AD87BE876B857C858D859E8524
:1028E00020E030E04AE755E40E941F02DC01CB0102
:1028F0008F839887A987BA876F81788589859A851C
:1029000020E030E040E85FE30E94250488232CF4B7
:1029100081E090E09E838D833FC06F8178858985BB
:102920009A8520E03FEF4FE757E40E94C503181651
:102930004CF56B857C858D859E8520E030E040E2FE
:1029400051E40E941F02DC01CB01BC01CD010E94B9
:102950004900DC01CB019E838D830FC080E991E0AB
:102960009C838B838B819C810197F1F79C838B8364
:102970008D819E8101979E838D838D819E8100979D
:1029800069F714C06F81788589859A850E9449000E
:10299000DC01CB019E838D838D819E819A83898307
:1029A00089819A810197F1F79A83898383E30E9451
:1029B000001082E30E94001088E20E9400108FE065
:1029C0000E94001086E00E94001081E00E9400102A
:1029D0002E960FB6F894DEBF0FBECDBFCF91DF911C
:1029E0000895DF93CF9300D000D0CDB7DEB79C839E
:1029F0008B831A8219820FC029813A818B819C8135
:102A0000FC01E20FF31F80810E94A60B89819A814D
:102A100001969A83898329813A818B819C81FC016B
:102A2000E20FF31F8081882339F70F900F900F90EA
:102A30000F90CF91DF910895DF93CF9300D000D016
:102A4000CDB7DEB78B836C831A8219828B81882382
:102A500029F480E890E09A83898307C08B818130D4
:102A600021F480EC90E09A8389838C81803148F452
:102A70008C81282F30E089819A81820F931F9A835D
:102A8000898389810E9400100F900F900F900F9002
:102A9000CF91DF910895DF93CF93CDB7DEB7E19764
:102AA0000FB6F894DEBF0FBECDBF89ABEBE3F0E00D
:102AB00089A98083A5E3B0E0E5E3F0E080818E7F23
:102AC0008C93A5E3B0E0E5E3F0E080818D7F8C930B
:102AD000A5E3B0E0E5E3F0E0808184608C9380E0E2
:102AE00090E0A0EAB0E48DA79EA7AFA7B8AB6DA514
:102AF0007EA58FA598A92BEA3AEA4AEA50E40E94FB
:102B00001F02DC01CB0189A79AA7ABA7BCA769A5C7
:102B10007AA58BA59CA520E030E040E85FE30E9409
:102B2000250488231CF481E088A791C069A57AA5B3
:102B30008BA59CA520E030E04FE753E40E94C5033D
:102B400018160CF07BC06DA57EA58FA598A920E076
:102B500030E04AE754E40E941903DC01CB018CA366
:102B60009DA3AEA3BFA36CA17DA18EA19FA120E0D8
:102B700030E04AE755E40E941F02DC01CB0188A344
:102B800099A3AAA3BBA368A179A18AA19BA120E0D4
:102B900030E040E85FE30E94250488232CF481E0C4
:102BA00090E09F8F8E8F3FC068A179A18AA19BA1E1
:102BB00020E03FEF4FE757E40E94C50318164CF59D
:102BC0006CA17DA18EA19FA120E030E040E251E404
:102BD0000E941F02DC01CB01BC01CD010E94490013
:102BE000DC01CB019F8F8E8F0FC080E991E09D8F1C
:102BF0008C8F8C8D9D8D0197F1F79D8F8C8F8E8D95
:102C00009F8D01979F8F8E8F8E8D9F8D009769F777
:102C100024C068A179A18AA19BA10E944900DC017E
:102C2000CB019F8F8E8F8E8D9F8D9B8F8A8F8A8DEC
:102C30009B8D0197F1F79B8F8A8F0FC069A57AA5AD
:102C40008BA59CA50E944900DC01CB0188A788A523
:102C5000898F898D8A95F1F7898FA5E3B0E0E5E347
:102C6000F0E080818B7F8C9380E090E0A0EAB0E47C
:102C70008D8B9E8BAF8BB88F6D897E898F89988D58
:102C80002BEA3AEA4AEA50E40E941F02DC01CB0137
:102C9000898B9A8BAB8BBC8B69897A898B899C8950
:102CA00020E030E040E85FE30E94250488231CF424
:102CB00081E0888B91C069897A898B899C8920E021
:102CC00030E04FE753E40E94C50318160CF07BC0B8
:102CD0006D897E898F89988D20E030E04AE754E441
:102CE0000E941903DC01CB018C879D87AE87BF87CB
:102CF0006C857D858E859F8520E030E04AE755E430
:102D00000E941F02DC01CB0188879987AA87BB87B5
:102D1000688579858A859B8520E030E040E85FE31F
:102D20000E94250488232CF481E090E09F838E8309
:102D30003FC0688579858A859B8520E03FEF4FE716
:102D400057E40E94C50318164CF56C857D858E8569
:102D50009F8520E030E040E251E40E941F02DC0148
:102D6000CB01BC01CD010E944900DC01CB019F8356
:102D70008E830FC080E991E09D838C838C819D813F
:102D80000197F1F79D838C838E819F8101979F83AB
:102D90008E838E819F81009769F724C0688579852D
:102DA0008A859B850E944900DC01CB019F838E832D
:102DB0008E819F819B838A838A819B810197F1F712
:102DC0009B838A830FC069897A898B899C890E9439
:102DD0004900DC01CB01888B8889898389818A95A8
:102DE000F1F78983E1960FB6F894DEBF0FBECDBF31
:102DF000CF91DF910895DF93CF93CDB7DEB7E19701
:102E00000FB6F894DEBF0FBECDBF89ABEBE3F0E0A9
:102E100089A98083A5E3B0E0E5E3F0E080818160EB
:102E20008C93A5E3B0E0E5E3F0E080818D7F8C93A7
:102E3000A5E3B0E0E5E3F0E0808184608C9380E07E
:102E400090E0A0EAB0E48DA79EA7AFA7B8AB6DA5B0
:102E50007EA58FA598A92BEA3AEA4AEA50E40E9497
:102E60001F02DC01CB0189A79AA7ABA7BCA769A564
:102E70007AA58BA59CA520E030E040E85FE30E94A6
:102E8000250488231CF481E088A791C069A57AA550
:102E90008BA59CA520E030E04FE753E40E94C503DA
:102EA00018160CF07BC06DA57EA58FA598A920E013
:102EB00030E04AE754E40E941903DC01CB018CA303
:102EC0009DA3AEA3BFA36CA17DA18EA19FA120E075
:102ED00030E04AE755E40E941F02DC01CB0188A3E1
:102EE00099A3AAA3BBA368A179A18AA19BA120E071
:102EF00030E040E85FE30E94250488232CF481E061
:102F000090E09F8F8E8F3FC068A179A18AA19BA17D
:102F100020E03FEF4FE757E40E94C50318164CF539
:102F20006CA17DA18EA19FA120E030E040E251E4A0
:102F30000E941F02DC01CB01BC01CD010E944900AF
:102F4000DC01CB019F8F8E8F0FC080E991E09D8FB8
:102F50008C8F8C8D9D8D0197F1F79D8F8C8F8E8D31
:102F60009F8D01979F8F8E8F8E8D9F8D009769F714
:102F700024C068A179A18AA19BA10E944900DC011B
:102F8000CB019F8F8E8F8E8D9F8D9B8F8A8F8A8D89
:102F90009B8D0197F1F79B8F8A8F0FC069A57AA54A
:102FA0008BA59CA50E944900DC01CB0188A788A5C0
:102FB000898F898D8A95F1F7898FA5E3B0E0E5E3E4
:102FC000F0E080818B7F8C9380E090E0A0EAB0E419
:102FD0008D8B9E8BAF8BB88F6D897E898F89988DF5
:102FE0002BEA3AEA4AEA50E40E941F02DC01CB01D4
:102FF000898B9A8BAB8BBC8B69897A898B899C89ED
:1030000020E030E040E85FE30E94250488231CF4C0
:1030100081E0888B91C069897A898B899C8920E0BD
:1030200030E04FE753E40E94C50318160CF07BC054
:103030006D897E898F89988D20E030E04AE754E4DD
:103040000E941903DC01CB018C879D87AE87BF8767
:103050006C857D858E859F8520E030E04AE755E4CC
:103060000E941F02DC01CB0188879987AA87BB8752
:10307000688579858A859B8520E030E040E85FE3BC
:103080000E94250488232CF481E090E09F838E83A6
:103090003FC0688579858A859B8520E03FEF4FE7B3
:1030A00057E40E94C50318164CF56C857D858E8506
:1030B0009F8520E030E040E251E40E941F02DC01E5
:1030C000CB01BC01CD010E944900DC01CB019F83F3
:1030D0008E830FC080E991E09D838C838C819D81DC
:1030E0000197F1F79D838C838E819F8101979F8348
:1030F0008E838E819F81009769F724C068857985CA
:103100008A859B850E944900DC01CB019F838E83C9
:103110008E819F819B838A838A819B810197F1F7AE
:103120009B838A830FC069897A898B899C890E94D5
:103130004900DC01CB01888B8889898389818A9544
:10314000F1F78983E1960FB6F894DEBF0FBECDBFCD
:10315000CF91DF910895DF93CF93CDB7DEB72E9750
:103160000FB6F894DEBF0FBECDBFEAE3F0E08FEFFD
:103170008083E4E3F0E08FEF8083A5E3B0E0E5E354
:10318000F0E0808188638C9380E090E0A0EAB1E475
:103190008B879C87AD87BE876B857C858D859E855B
:1031A00020E030E04AE755E40E941F02DC01CB0139
:1031B0008F839887A987BA876F81788589859A8553
:1031C00020E030E040E85FE30E94250488232CF4EF
:1031D00081E090E09E838D833FC06F8178858985F3
:1031E0009A8520E03FEF4FE757E40E94C503181689
:1031F0004CF56B857C858D859E8520E030E040E236
:1032000051E40E941F02DC01CB01BC01CD010E94F0
:103210004900DC01CB019E838D830FC080E991E0E2
:103220009C838B838B819C810197F1F79C838B839B
:103230008D819E8101979E838D838D819E810097D4
:1032400069F714C06F81788589859A850E94490045
:10325000DC01CB019E838D838D819E819A8389833E
:1032600089819A810197F1F79A8389838EE30E947D
:103270004B1580E40E944B1588EB0E944B1580ECA7
:103280000E944B158FE30E944B152E960FB6F894B3
:10329000DEBF0FBECDBFCF91DF910895DF93CF93F7
:1032A00000D000D0CDB7DEB7A5E3B0E0E5E3F0E0B5
:1032B000808188618C931C821B8219C08B81885409
:1032C0000E944B151A82198208C080E00E94FB16EA
:1032D00089819A8101969A83898389819A81803430
:1032E00091059CF38B819C8101969C838B838B81C0
:1032F0009C818830910514F380E40E944B1588EB83
:103300000E944B150F900F900F900F90CF91DF916F
:1033100008950F931F93DF93CF93CDB7DEB72F9709
:103320000FB6F894DEBF0FBECDBF8D877F876E8747
:103330008D85882F90E088549F4F98878F831E82B9
:103340001D8280E090E0A0E0BFE389839A83AB8395
:10335000BC83A5E3B0E0E5E3F0E0808188608C9376
:10336000A5E3B0E0E5E3F0E080818F7E8C938F8170
:103370000E944B151C861B8616C28D85882F90E0F7
:103380009695982F882797958795909581959F4F2B
:1033900085509C4F9C018D819E812817390708F428
:1033A0000DC22E853F858B859C85F901E80FF91F9D
:1033B0008081803209F480C081E090E09A8789871B
:1033C00075C02D813E8189859A858901080F191F55
:1033D00069817A818B819C8120E030E040E05FE36D
:1033E0000E94F201DC01CB01BC01CD010E94550419
:1033F000DC01CB019695982F88279795879508171C
:10340000190709F04EC089859A858530910509F420
:1034100053C080E40E944B152D813E8189859A8599
:10342000820F931F9E838D83A5E3B0E0E5E3F0E078
:10343000908188E089278C93A5E3B0E0E5E3F0E094
:10344000908180E189278C938F819885CC01A0E0C1
:10345000B0E0BC01CD010E94A904DC01CB01BC019C
:10346000CD0129813A814B815C810E94F201DC010E
:10347000CB01BC01CD010E944900DC01CB010E94BF
:103480004B1569817A818B819C8120E030E040E09E
:103490005FE30E94F201DC01CB0189839A83AB8355
:1034A000BC8389859A8501969A87898789859A85BB
:1034B0008630910508F485CF8D85882F90E096950C
:1034C000982F882797958795909581959F4F855040
:1034D0009C4F9C018D819E812817390708F46EC18D
:1034E0002E853F858B859C85F901E80FF91F80812A
:1034F000282F30E0C901880F991F820F931F880F72
:10350000991F880F991F880F991F820F931F8C5046
:10351000934084559E4F009759F02E853F858B85AB
:103520009C85F901E80FF91F8081803209F076C08F
:103530001A8619866CC02E853F858B859C85F9017E
:10354000E80FF91F8081882F90E09C0120523040C5
:1035500049855A85C901880F991F880F991F820FC5
:10356000931F840F951FFC01E455FE4F80810E943C
:10357000FB168D819E8101968F7390700097E9F5FF
:10358000A5E3B0E0E5E3F0E0908188E089278C9343
:10359000A5E3B0E0E5E3F0E0908180E189278C933A
:1035A0008F819885CC01A0E0B0E0BC01CD010E94E4
:1035B000A904DC01CB01BC01CD0129813A814B81F9
:1035C0005C810E94F201DC01CB01BC01CD010E94B3
:1035D0004900DC01CB010E944B1569817A818B8106
:1035E0009C8120E030E040E05FE30E94F201DC01DA
:1035F000CB0189839A83AB83BC838D819E810196A5
:103600009E838D8389859A8501969A878987898586
:103610009A858530910508F48ECFC0C01A86198628
:103620006CC02E853F858B859C85F901E80FF91FBD
:103630008081882F90E09C012052304049855A8536
:10364000C901880F991F880F991F820F931F840F3C
:10365000951FFC01E455FE4F80810E94FB168D8171
:103660009E8101968F7390700097E9F5A5E3B0E015
:10367000E5E3F0E0908188E089278C93A5E3B0E052
:10368000E5E3F0E0908180E189278C938F81988534
:10369000CC01A0E0B0E0BC01CD010E94A904DC0196
:1036A000CB01BC01CD0129813A814B815C810E9413
:1036B000F201DC01CB01BC01CD010E944900DC011B
:1036C000CB010E944B1569817A818B819C8120E01E
:1036D00030E040E05FE30E94F201DC01CB0189832E
:1036E0009A83AB83BC838D819E8101969E838D835B
:1036F00089859A8501969A87898789859A858530F3
:10370000910508F48ECF80E00E94FB168D819E818A
:1037100001969E838D838D819E818F73907000971B
:10372000E9F5A5E3B0E0E5E3F0E0908188E08927E2
:103730008C93A5E3B0E0E5E3F0E0908180E1892798
:103740008C938F819885CC01A0E0B0E0BC01CD01C5
:103750000E94A904DC01CB01BC01CD0129813A8181
:103760004B815C810E94F201DC01CB01BC01CD01E7
:103770000E944900DC01CB010E944B1569817A81CE
:103780008B819C8120E030E040E05FE30E94F20109
:10379000DC01CB0189839A83AB83BC838B859C85B9
:1037A00001969C878B872E853F858B859C85F901AB
:1037B000E80FF91F8081882309F0DFCD80E40E94A3
:1037C0004B152F960FB6F894DEBF0FBECDBFCF912D
:1037D000DF911F910F910895EF92FF920F931F9326
:1037E000DF93CF93CDB7DEB76C970FB6F894DEBFFB
:1037F0000FBECDBF0E94350A0E945A1480E690E0A9
:103800000E94F11480EC0E94001086E690E00E9475
:10381000F114EFE4F0E01082ECE4F0E011821082A9
:10382000E8E5F0E080E28083EEE4F0E081E480838C
:10383000E8E5F0E08081882F90E08072907000973A
:10384000B9F3E6E4F0E0808191819093AD03809339
:10385000AC03E8E5F0E080E28083EEE4F0E081E0B4
:103860008083E8E5F0E08081882F90E0807290709E
:103870000097B9F3E6E4F0E0808191819093AB0387
:103880008093AA03E8E5F0E080E28083EEE4F0E0D4
:1038900081E48083E8E5F0E08081882F90E0807209
:1038A00090700097B9F3E6E4F0E080819181909305
:1038B000A5038093A403E8E5F0E080E28083EEE4D2
:1038C000F0E010822091AC033091AD038091AA0307
:1038D0009091AB032817390758F52091AA0330912E
:1038E000AB038091A4039091A5032817390700F535
:1038F0002091AA033091AB038091AC039091AD036A
:10390000A901481B590BCA019093A7038093A603F2
:103910002091A4033091A5038091AC039091AD0355
:10392000A901481B590BCA019093A9038093A803CE
:103930008091A8039091A9039C0140E050E080E0B1
:1039400094E2A4EFB0E0BC01CD010E94E61DDA01D3
:10395000C901898F9A8FAB8FBC8F8091A6039091FC
:10396000A703CC01A0E0B0E0BC01CD010E94A904F6
:103970007B018C018091A8039091A903CC01A0E068
:10398000B0E0BC01CD010E94A9049B01AC01C801BB
:10399000B7010E941903DC01CB01BC01CD0120E07D
:1039A00030E048EC52E40E941F02DC01CB01BC0174
:1039B000CD010E945504DC01CB01988F8F8B1E8AAC
:1039C0001D8A0CC08D899E89FC01E457FC4F80E262
:1039D00080838D899E8901969E8B8D8B8D899E8992
:1039E0008C3091057CF380E065E00E941C15898D88
:1039F0009A8D2CE833E0B9014AE050E00E941707A5
:103A00001C8A1B8A21C08B899C89FC01E457FC4FCE
:103A10008081803340F08B899C89FC01E457FC4F06
:103A200080818A3320F080E20E94A60B08C08B8937
:103A30009C89FC01E457FC4F80810E94A60B8B8976
:103A40009C8901969C8B8B8B8B899C898E309105F0
:103A5000D4F21A8A198A0CC089899A89FC01E6561F
:103A6000FC4F80E2808389899A8901969A8B898BA1
:103A700089899A89833091057CF381E065E00E9411
:103A80001C158F89988D2AE933E0B9014AE050E08E
:103A90000E941707188A1F8621C08F859889FC010C
:103AA000E656FC4F8081803340F08F859889FC0179
:103AB000E656FC4F80818A3320F080E20E94A60BFC
:103AC00008C08F859889FC01E656FC4F80810E94D2
:103AD000A60B8F8598890196988B8F878F859889FB
:103AE00083309105D4F280E090E0AAE7B3E48B87BD
:103AF0009C87AD87BE876B857C858D859E8520E004
:103B000030E04AE755E40E941F02DC01CB018F83BD
:103B10009887A987BA876F81788589859A8520E0FB
:103B200030E040E85FE30E94250488232CF481E024
:103B300090E09E838D833FC06F81788589859A85CB
:103B400020E03FEF4FE757E40E94C50318164CF5FD
:103B50006B857C858D859E8520E030E040E251E4D8
:103B60000E941F02DC01CB01BC01CD010E94490073
:103B7000DC01CB019E838D830FC080E991E09C83A3
:103B80008B838B819C810197F1F79C838B838D8143
:103B90009E8101979E838D838D819E81009769F719
:103BA00038CE6F81788589859A850E944900DC012D
:103BB000CB019E838D838D819E819A8389838981A8
:103BC0009A810197F1F79A83898323CE97FB092E77
:103BD00005260ED057FD04D014D00AD0001C38F4AE
:103BE00050954095309521953F4F4F4F5F4F089529
:103BF000F6F790958095709561957F4F8F4F9F4F09
:103C00000895A1E21A2EAA1BBB1BFD010DC0AA1F1D
:103C1000BB1FEE1FFF1FA217B307E407F50720F035
:103C2000A21BB30BE40BF50B661F771F881F991FB0
:103C30001A9469F760957095809590959B01AC01F9
:103C4000BD01CF0108952F923F924F925F926F92E4
:103C50007F928F929F92AF92BF92CF92DF92EF921C
:103C6000FF920F931F93CF93DF93CDB7DEB7CA1B9D
:103C7000DB0B0FB6F894DEBF0FBECDBF09942A88C8
:103C8000398848885F846E847D848C849B84AA8470
:103C9000B984C884DF80EE80FD800C811B81AA81FD
:103CA000B981CE0FD11D0FB6F894DEBF0FBECDBFC8
:103CB000ED010895AA1BBB1B51E107C0AA1FBB1F42
:103CC000A617B70710F0A61BB70B881F991F5A95A8
:103CD000A9F780959095BC01CD010895F894FFCF88
:103CE000467265713D00447574793D000000000026
:103CF00000000000000102020303030304040404A3
:103D00000404040405050505050505050505050567
:103D10000505050506060606060606060606060647
:103D20000606060606060606060606060606060633
:103D30000606060607070707070707070707070717
:103D40000707070707070707070707070707070703
:103D500007070707070707070707070707070707F3
:103D600007070707070707070707070707070707E3
:103D700007070707080808080808080808080808C7
:103D800008080808080808080808080808080808B3
:103D900008080808080808080808080808080808A3
:103DA0000808080808080808080808080808080893
:103DB0000808080808080808080808080808080883
:103DC0000808080808080808080808080808080873
:103DD0000808080808080808080808080808080863
:103DE0000808080808080808080808080808080853
:103DF0000808080800040100050100060100070189
:103E0000000100010101010201010301010401019E
:103E10000501010600010701020301020401020578
:103E2000010206010300000300011200000000006F
:103E30000000005F00000007000700147F147F14DB
:103E4000242A7F2A1223130864623649552250001F
:103E500005030000001C2241000041221C00140840
:103E60003E081408083E0808005030000008080802
:103E70000808006060000020100804023E51494517
:103E80003E00427F400042615149462141454B314D
:103E90001814127F1027454545393C4A49493001DD
:103EA000710905033649494936064949291E003634
:103EB0003600000056360000081422410014141485
:103EC00014140041221408020151090632497941B3
:103ED0003E7E1111117E7F494949363E41414122C2
:103EE0007F4141221C7F494949417F090909013E1F
:103EF0004149497A7F0808087F00417F41002040FE
:103F0000413F017F081422417F404040407F020C26
:103F1000027F7F0408107F3E4141413E7F0909092D
:103F2000063E4151215E7F091929464649494931DA
:103F300001017F01013F4040403F1F2040201F3FC3
:103F40004038403F63140814630708700807615144
:103F5000494543007F4141000204081020004141CF
:103F60007F0004020102044040404040000102047E
:103F70000020545454787F48444438384444442002
:103F8000384444487F3854545418087E0901020CC0
:103F90005252523E7F0804047800447D4000204085
:103FA000443D007F1028440000417F40007C0418FD
:103FB00004787C0804047838444444387C1414148D
:103FC00008081414187C7C0804040848545454202D
:103FD000043F4440203C4040207C1C2040201C3CAE
:103FE0004030403C44281028440C5050503C44641D
:103FF000544C44000836410000007F000000413668
:104000000800100808100878464146782000000093
:104010000000000000000000000020000000000080
:0240200000009E
:00000001FF
