:100000000C942A000C942A090C9457090C94840926
:100010000C9447000C9447000C9447000C94470044
:100020000C9447000C9447000C9447000C94470034
:100030000C9447000C9447000C9447000C94470024
:100040000C9447000C9447000C9447000C94470014
:100050000C94470011241FBECFE5D8E0DEBFCDBF12
:1000600011E0A0E6B0E0E8ECF2E302C005900D92EA
:10007000A23AB107D9F711E0A2EAB1E001C01D929E
:10008000AB3CB107E1F70E947A160C9462190C940C
:100090000000EF92FF920F931F937B018C0120E0F1
:1000A00030E040E05FE40E94F50388238CF0C80153
:1000B000B70120E030E040E05FE40E94C1010E940F
:1000C00055049B01AC01205030404040504806C0D0
:1000D000C801B7010E9455049B01AC01B901CA01D6
:1000E0001F910F91FF90EF900895A0E0B0E0EBE733
:1000F000F0E00C941719DC012B01FA019C9192306D
:1001000008F439C1EB018881823008F433C194309E
:1001100069F4843009F02FC111969C91119789815F
:10012000981709F428C1A3E7B0E025C1843009F489
:1001300021C18230A9F4923009F01DC19A01AD01AC
:1001400088E0EA010990AE01E90109929E0181501F
:10015000C1F7E201898111969C918923818308C1AD
:10016000923009F407C112962D903C901397EB0141
:100170008A819B811496AD90BD90CD90DC901797AD
:10018000EC80FD800E811F819101281B390BB90184
:1001900037FF04C066277727621B730B6032710537
:1001A0000CF061C0121613066CF537014801062EDB
:1001B00004C096948794779467940A94D2F721E0C8
:1001C00030E040E050E004C0220F331F441F551FB1
:1001D0006A95D2F721503040404050402E213F21B7
:1001E00040235123211531054105510521F021E01E
:1001F00030E040E050E079018A01E628F72808293C
:1002000019293CC0232BD1F1260E371E350146019A
:10021000062E04C096948794779467940A94D2F734
:1002200021E030E040E050E004C0220F331F441FC3
:10023000551F6A95D2F721503040404050402A2146
:100240003B214C215D21211531054105510521F04E
:1002500021E030E040E050E059016A01A628B728CB
:10026000C828D9280BC0821593052CF01C01AA249C
:10027000BB24650103C0EE24FF24870111969C91E5
:10028000D20111968C91981709F445C0992339F041
:10029000A80197012A193B094C095D0906C0A6016E
:1002A00095012E193F09400B510B57FD08C01182D3
:1002B0003382228224833583468357831DC081E0A5
:1002C00081833382228288279927DC01821B930B4A
:1002D000A40BB50B84839583A683B7830DC0220F2F
:1002E000331F441F551F24833583468357838281E0
:1002F000938101979383828324813581468157813D
:10030000DA01C9010197A109B1098F5F9F4FAF4F72
:10031000BF4328F30BC0918333822282EA0CFB1C7B
:100320000C1D1D1DE482F5820683178383E0808304
:10033000248135814681578157FF1AC0C901AA27F8
:1003400097FDA095BA2F81709070A070B0705695EF
:10035000479537952795822B932BA42BB52B848318
:100360009583A683B7838281938101969383828349
:10037000DF0101C0D201CD01CDB7DEB7E2E10C94BF
:100380003319A0E2B0E0E7ECF1E00C9423196983A3
:100390007A838B839C832D833E834F835887E9E048
:1003A000EE2EF12CEC0EFD1ECE010196B7010E943F
:1003B00046068E010F5E1F4FCE010596B8010E94C2
:1003C00046068A8991E089278A8BC701B801AE0168
:1003D000475E5F4F0E9475000E947105A096E6E09F
:1003E0000C943F19A0E2B0E0E8EFF1E00C9423197F
:1003F00069837A838B839C832D833E834F835887C5
:10040000F9E0EF2EF12CEC0EFD1ECE010196B701A6
:100410000E9446068E010F5E1F4FCE010596B80161
:100420000E944606C701B801AE01475E5F4F0E94B9
:1004300075000E947105A096E6E00C943F19A0E2B9
:10044000B0E0E5E2F2E00C94171969837A838B83BC
:100450009C832D833E834F835887CE010196BE0136
:10046000675F7F4F0E944606CE010596BE016F5E14
:100470007F4F0E9446069985923088F089898230A4
:10048000C8F0943019F4823051F404C0843029F457
:10049000923081F483E790E0C6C0923049F420E0C6
:1004A0009A858A89981321E02A87CE010996BBC0D4
:1004B000823049F420E09A858A89981321E02A8BBA
:1004C000CE014196B0C02D843E844F8458886D88FB
:1004D0007E888F88988CEE24FF248701AA24BB2471
:1004E000650140E050E060E070E0E0E0F0E0C10174
:1004F00081709070892BE9F0E60CF71C081D191D1E
:100500009A01AB012A0D3B1D4C1D5D1D80E090E062
:10051000A0E0B0E0E614F7040805190520F481E036
:1005200090E0A0E0B0E0BA01A901480F591F6A1F8E
:100530007B1FAA0CBB1CCC1CDD1C97FE08C081E0F5
:1005400090E0A0E0B0E0A82AB92ACA2ADB2A3196B6
:10055000E032F10549F0660C771C881C991C569412
:10056000479437942794C3CFFA85EA892B893C892D
:100570008B859C85280F391F2E5F3F4F17C0CA01FE
:1005800081709070892B61F016950795F794E79428
:1005900080E090E0A0E0B0E8E82AF92A0A2B1B2BC3
:1005A00076956795579547952F5F3F4F77FDE7CF36
:1005B0000CC0440F551F661F771F17FD4160EE0CDE
:1005C000FF1C001F111F21503040403090E05907A0
:1005D00090E0690790E4790760F32B8F3C8FDB0193
:1005E000CA018F779070A070B07080349105A1051A
:1005F000B10561F447FD0AC0E114F10401051105DC
:1006000029F0405C5F4F6F4F7F4F40781A8EFE1786
:1006100011F081E08A8F4D8F5E8F6F8F78A383E01A
:10062000898FCE0149960E947105A096E2E10C9453
:100630003319A8E1B0E0EFE1F3E00C941F196983EE
:100640007A838B839C832D833E834F835887B9E0C5
:10065000EB2EF12CEC0EFD1ECE010196B7010E948F
:1006600046068E010F5E1F4FCE010596B8010E940F
:1006700046062985223008F47EC03989323010F4CC
:10068000B8017CC08A859A8989278A87243011F02D
:10069000223031F4231709F06EC063E770E06EC0BA
:1006A000343039F41D861E861F86188A1C861B86E8
:1006B00004C0323021F484E08987B7015FC02B8504
:1006C0003C858B899C89281B390B3C872B87ED84C3
:1006D000FE840F851889AD88BE88CF88D88CEA142F
:1006E000FB040C051D0540F4EE0CFF1C001F111F40
:1006F000215030403C872B8720E030E040E050E044
:1007000080E090E0A0E0B0E460E070E0EA14FB0478
:100710000C051D0540F0282B392B4A2B5B2BEA18C2
:10072000FB080C091D09B695A79597958795EE0CC2
:10073000FF1C001F111F6F5F7F4F6F31710531F775
:10074000DA01C9018F779070A070B0708034910584
:10075000A105B10561F427FD0AC0E114F10401050A
:10076000110529F0205C3F4F4F4F5F4F20782D87B8
:100770003E874F87588BBE01675F7F4FCB010E943A
:1007800071056896EAE00C943B19A8E1B0E0EBEC47
:10079000F3E00C94231969837A838B839C832D83E4
:1007A0003E834F83588789E0E82EF12CEC0EFD1E26
:1007B000CE010196B7010E9446068E010F5E1F4FC3
:1007C000CE010596B8010E9446068985823040F028
:1007D0008989823028F0C701B8010E94BE0601C095
:1007E0008FEF6896E6E00C943F19A8E1B0E0EBEFDC
:1007F000F3E00C94231969837A838B839C832D8384
:100800003E834F83588789E0E82EF12CEC0EFD1EC5
:10081000CE010196B7010E9446068E010F5E1F4F62
:10082000CE010596B8010E9446068985823040F0C7
:100830008989823028F0C701B8010E94BE0601C034
:100840008FEF6896E6E00C943F19A8E1B0E0EBE288
:10085000F4E00C94231969837A838B839C832D8322
:100860003E834F83588789E0E82EF12CEC0EFD1E65
:10087000CE010196B7010E9446068E010F5E1F4F02
:10088000CE010596B8010E9446068985823040F067
:100890008989823028F0C701B8010E94BE0601C0D4
:1008A00081E06896E6E00C943F19ACE0B0E0EBE53F
:1008B000F4E00C94271969837A838B839C83CE019F
:1008C0000196BE016B5F7F4F0E9446068D8182308C
:1008D00061F1823050F1843021F48E81882351F10E
:1008E0002EC02F81388537FD20C06E812F31310514
:1008F0001CF06623F9F023C08EE190E0821B930B7D
:1009000029853A854B855C8504C056954795379572
:1009100027958A95D2F76623B1F05095409530958A
:1009200021953F4F4F4F5F4F0EC020E030E040E039
:1009300050E009C02FEF3FEF4FEF5FE704C020E02A
:1009400030E040E050E8B901CA012C96E2E00C9496
:100950004319A8E0B0E0EFEAF4E00C941F197B0122
:100960008C01611571058105910519F482E0898377
:1009700060C083E089838EE1C82ED12CDC82CB82DB
:10098000ED82FE820F831887C801B7010E942205FD
:10099000FC013197F7FF3BC0222733272E1B3F0B6B
:1009A00057016801022E04C0D694C794B794A79447
:1009B0000A94D2F740E050E060E070E081E090E01F
:1009C000A0E0B0E004C0880F991FAA1FBB1F2A95A2
:1009D000D2F70197A109B1098E219F21A023B1234C
:1009E0000097A105B10521F041E050E060E070E022
:1009F0004A295B296C297D294D835E836F83788723
:100A00008EE190E08E1B9F0B9C838B8312C03097EE
:100A100081F00E2E04C0EE0CFF1C001F111F0A9463
:100A2000D2F7ED82FE820F831887CE1ADF0ADC82AE
:100A3000CB821A82CE0101960E9471052896EAE0C7
:100A40000C943B19EF92FF920F931F937B018C0143
:100A500080E0E81680E0F80681E0080780E01807EB
:100A600088F48FEFE816F1040105110531F028F044
:100A700088E090E0A0E0B0E017C080E090E0A0E067
:100A8000B0E012C080E0E81680E0F80680E00807D9
:100A900081E0180728F088E190E0A0E0B0E004C011
:100AA00080E190E0A0E0B0E020E230E040E050E003
:100AB000281B390B4A0B5B0B04C016950795F7945E
:100AC000E7948A95D2F7F701E558FF4F8081281BFC
:100AD000310941095109C9011F910F91FF90EF9010
:100AE0000895DF92EF92FF920F931F93FC01E48031
:100AF000F58006811781D1808081823048F480E0C2
:100B000090E0A0E1B0E0E82AF92A0A2B1B2BA5C04F
:100B1000843009F49FC0823021F4EE24FF24870141
:100B200005C0E114F1040105110519F4E0E0F0E05D
:100B300096C0628173819FEF623879070CF05BC0C9
:100B400022E83FEF261B370B2A3131052CF020E03D
:100B500030E040E050E02AC0B801A701022E04C0F6
:100B600076956795579547950A94D2F781E090E07E
:100B7000A0E0B0E004C0880F991FAA1FBB1F2A95F0
:100B8000D2F70197A109B1098E219F21A023B1239A
:100B90000097A105B10521F081E090E0A0E0B0E070
:100BA0009A01AB01282B392B4A2B5B2BDA01C901A7
:100BB0008F779070A070B07080349105A105B10559
:100BC00039F427FF09C0205C3F4F4F4F5F4F04C0EF
:100BD000215C3F4F4F4F5F4FE0E0F0E02030A0E05E
:100BE0003A07A0E04A07A0E45A0710F0E1E0F0E07D
:100BF00079018A0127C06038710564F5FB01E1586D
:100C0000FF4FD801C7018F779070A070B07080340B
:100C10009105A105B10539F4E7FE0DC080E490E02F
:100C2000A0E0B0E004C08FE390E0A0E0B0E0E80E08
:100C3000F91E0A1F1B1F17FF05C016950795F7948D
:100C4000E794319687E016950795F794E7948A958F
:100C5000D1F705C0EE24FF248701EFEFF0E06E2FFF
:100C6000679566276795902F9F77D794DD24D79453
:100C70008E2F8695492F462B582F5D29B701CA0123
:100C80001F910F91FF90EF90DF900895FC01DB0121
:100C9000408151812281622F6F7770E0221F2227CD
:100CA000221F9381892F880F822B282F30E0991FD4
:100CB0009927991F11969C93119721153105A9F534
:100CC000411551056105710511F482E037C082E8D4
:100CD0009FEF13969C938E9312979A01AB0167E056
:100CE000220F331F441F551F6A95D1F783E08C9361
:100CF0000DC0220F331F441F551F12968D919C91DA
:100D00001397019713969C938E931297203080E04F
:100D1000380780E0480780E4580758F314962D936D
:100D20003D934D935C93179708952F3F310579F4C8
:100D3000411551056105710519F484E08C930895FE
:100D400064FF03C081E08C9312C01C9210C02F5727
:100D5000304013963C932E93129783E08C9387E058
:100D6000440F551F661F771F8A95D1F7706414963C
:100D70004D935D936D937C93179708951F93DC01BA
:100D8000FB019C91923008F447C08081823008F4C6
:100D900043C0943051F411961C91843099F58181AF
:100DA000682F70E0611B71093FC0843021F09230E0
:100DB00031F48230B9F18181882389F12DC01196F7
:100DC0001C9111978230F1F081811817D9F4129695
:100DD0002D913C911397828193818217930794F010
:100DE00028173907BCF014968D919D910D90BC91F8
:100DF000A02D2481358146815781281739074A075C
:100E00005B0718F4112341F00AC082179307A40767
:100E1000B50740F4112319F061E070E005C06FEFF1
:100E20007FEF02C060E070E0CB011F910895FB01ED
:100E30009F01E8944230C4F04532B4F44A3029F4BA
:100E400097FB1EF4909581959F4F642F77270E9402
:100E50004E19805D8A330CF0895D8193CB01009738
:100E6000A1F716F45DE251931082C9010C946C074E
:100E7000FA01CF93FF93EF93223044F1253234F5FA
:100E8000C22FE894CA3049F497FB3EF490958095C0
:100E9000709561957F4F8F4F9F4F2C2F332744279D
:100EA0005527FF93EF930E94F518EF91FF91605D36
:100EB0006A330CF0695D6193B901CA0160507040FA
:100EC0008040904051F716F4CDE2C19310828F918B
:100ED0009F91CF910C946C07DC01FC01672F7191FD
:100EE0007723E1F7329704C07C916D937083629110
:100EF000AE17BF07C8F30895DF93CF93CDB7DEB722
:100F0000AFE4B0E0EFE4F0E0808181608C93AFE487
:100F1000B0E0EFE4F0E0808182608C93AFE4B0E079
:100F2000EFE4F0E0808180628C93AEE4B0E0EEE428
:100F3000F0E0808188608C93AEE4B0E0EEE4F0E015
:100F4000808181608C93AFE4B0E0EFE4F0E08081D9
:100F50008F7B8C93AFE4B0E0EFE4F0E080818F779B
:100F60008C93AFE4B0E0EFE4F0E0808181608C939B
:100F7000AFE4B0E0EFE4F0E080818D7F8C93AFE4EC
:100F8000B0E0EFE4F0E080818B7F8C93CF91DF9134
:100F90000895DF93CF93CDB7DEB7EAE4F0E080E2C7
:100FA00093E091838083E8E4F0E011821082CF9196
:100FB000DF910895CF92DF92EF92FF920F931F93EC
:100FC000DF93CF93CDB7DEB72E970FB6F894DEBF81
:100FD0000FBECDBF9A8389837C836B835E834D83F1
:100FE00038872F831A870987FC86EB86DE86CD86B5
:100FF000EFE4F0E01082ECE4F0E011821082E8E52A
:10100000F0E080E28083EEE4F0E081E48083E8E5D4
:10101000F0E08081882F90E0807290700097B9F3A3
:10102000E6E4F0E0808191819A838983A8E5B0E0CD
:10103000E8E5F0E0808180628C93EEE4F0E081E00E
:101040008083E8E5F0E08081882F90E080729070E6
:101050000097B9F3E6E4F0E0808191819C838B8373
:10106000A8E5B0E0E8E5F0E0808180628C93EEE4F2
:10107000F0E081E48083E8E5F0E08081882F90E073
:10108000807290700097B9F3E6E4F0E0808191817E
:101090009E838D83A8E5B0E0E8E5F0E08081806282
:1010A0008C93EEE4F0E0108229813A818B819C815F
:1010B0002817390708F05DC02B813C818D819E8106
:1010C0002817390708F055C02B813C8189819A8106
:1010D000A901481B590BCA0198878F832D813E8136
:1010E00089819A81A901481B590BCA019A8789876E
:1010F00089859A859C0140E050E080E094E2A4EF6D
:10110000B0E0BC01CD010E94F518DA01C901EB8500
:10111000FC8580839183A283B3838F819885CC01E2
:10112000A0E0B0E0BC01CD010E94A9047B018C01CC
:1011300089859A85CC01A0E0B0E0BC01CD010E9478
:10114000A9049B01AC01C801B7010E941903DC018D
:10115000CB01BC01CD0120E030E048EC52E40E941C
:101160001F02DC01CB01ED85FE8580839183A28384
:10117000B3832E960FB6F894DEBF0FBECDBFCF91CE
:10118000DF911F910F91FF90EF90DF90CF90089526
:10119000DF93CF93CDB7DEB7ABE5B0E0EBE5F0E0A2
:1011A000808180648C93A5E5B0E0E5E5F0E0808186
:1011B0008D7F8C93A5E5B0E0E5E5F0E0808181606E
:1011C0008C93ABE5B0E0EBE5F0E080818F7B8C9316
:1011D000A5E5B0E0E5E5F0E080818D7F8C93A5E5A5
:1011E000B0E0E5E5F0E0808181608C93ABE5B0E0B4
:1011F000EBE5F0E080818F7B8C93A5E5B0E0E5E541
:10120000F0E080818D7F8C93A5E5B0E0E5E5F0E02E
:10121000808181608C93CF91DF910895DF93CF938C
:10122000CDB7DEB7ABE5B0E0EBE5F0E08081806400
:101230008C93A5E5B0E0E5E5F0E0808181608C93DA
:10124000A5E5B0E0E5E5F0E080818D7F8C93CF915E
:10125000DF9108951F920F920FB60F9211242F93D2
:101260003F934F935F936F937F938F939F93AF932E
:10127000BF93EF93FF93DF93CF93CDB7DEB7E091AA
:10128000A201F091A3010995CF91DF91FF91EF9118
:10129000BF91AF919F918F917F916F915F914F918E
:1012A0003F912F910F900FBE0F901F9018951F9296
:1012B0000F920FB60F9211242F933F934F935F938A
:1012C0006F937F938F939F93AF93BF93EF93FF930E
:1012D000DF93CF93CDB7DEB7E091A201F091A301E8
:1012E0000995CF91DF91FF91EF91BF91AF919F91C0
:1012F0008F917F916F915F914F913F912F910F90BF
:101300000FBE0F901F9018951F920F920FB60F925D
:1013100011242F933F934F935F936F937F938F93FA
:101320009F93AF93BF93EF93FF93DF93CF93CDB78B
:10133000DEB7E091A201F091A3010995CF91DF9171
:10134000FF91EF91BF91AF919F918F917F916F919D
:101350005F914F913F912F910F900FBE0F901F9073
:101360001895DF93CF9300D0CDB7DEB79A838983EA
:1013700089819A819093A3018093A2010F900F908D
:10138000CF91DF910895DF93CF9300D0CDB7DEB733
:101390009A83898389819A819093A3018093A20182
:1013A0000F900F90CF91DF910895DF93CF9300D0EE
:1013B000CDB7DEB79A83898389819A819093A301FF
:1013C0008093A2010F900F90CF91DF910895DF934A
:1013D000CF9300D000D000D0CDB7DEB78B836C8325
:1013E0008B818695869586958A838B818770898384
:1013F0008A81282F30E03E832D838D819E8181302C
:10140000910509F443C02D813E81223031052CF431
:101410008D819E81009771F0BCC02D813E8122306C
:10142000310509F45FC08D819E818330910509F4F7
:1014300085C0AFC08C818130A1F4ABE3B0E0EBE3B9
:10144000F0E08081482F8981282F30E081E090E012
:10145000022E02C0880F991F0A94E2F7842B8C9306
:1014600098C0ABE3B0E0EBE3F0E08081482F8981E6
:10147000282F30E081E090E0022E02C0880F991FF3
:101480000A94E2F7809584238C9383C08C81813009
:10149000A1F4A8E3B0E0E8E3F0E08081482F89817F
:1014A000282F30E081E090E0022E02C0880F991FC3
:1014B0000A94E2F7842B8C936CC0A8E3B0E0E8E3D5
:1014C000F0E08081482F8981282F30E081E090E092
:1014D000022E02C0880F991F0A94E2F78095842398
:1014E0008C9357C08C818130A1F4A5E3B0E0E5E393
:1014F000F0E08081482F8981282F30E081E090E062
:10150000022E02C0880F991F0A94E2F7842B8C9355
:1015100040C0A5E3B0E0E5E3F0E08081482F898199
:10152000282F30E081E090E0022E02C0880F991F42
:101530000A94E2F7809584238C932BC08C818130B0
:10154000A1F4A2E3B0E0E2E3F0E08081482F8981DA
:10155000282F30E081E090E0022E02C0880F991F12
:101560000A94E2F7842B8C9314C0A2E3B0E0E2E388
:10157000F0E08081482F8981282F30E081E090E0E1
:10158000022E02C0880F991F0A94E2F780958423E7
:101590008C9326960FB6F894DEBF0FBECDBFCF91C9
:1015A000DF910895DF93CF9300D000D000D0CDB766
:1015B000DEB78C838C818695869586958B838C810E
:1015C00087708A8319828B81282F30E03E832D8398
:1015D0004D815E814130510541F18D819E81823086
:1015E000910534F42D813E812115310561F053C000
:1015F0004D815E814230510551F18D819E81833054
:101600009105B9F148C0E9E3F0E08081282F30E08E
:101610008A81882F90E0A90102C0559547958A9547
:10162000E2F7CA018170898338C0E6E3F0E0808187
:10163000282F30E08A81882F90E0A90102C05595BB
:1016400047958A95E2F7CA018170898326C0E3E352
:10165000F0E08081282F30E08A81882F90E0A90176
:1016600002C0559547958A95E2F7CA018170898332
:1016700014C0E0E3F0E08081282F30E08A81882FD9
:1016800090E0A90102C0559547958A95E2F7CA01F5
:101690008170898302C08FEF8983898126960FB676
:1016A000F894DEBF0FBECDBFCF91DF910895DF93D9
:1016B000CF9300D000D0CDB7DEB71A82198257C1C0
:1016C00029813A81C901880F991F820F931FFC015C
:1016D000E558FE4F8081282F30E03C832B838B819F
:1016E0009C818130910509F461C02B813C812230BD
:1016F00031052CF48B819C81009771F033C12B81D3
:101700003C812230310509F49BC08B819C81833060
:10171000910509F4DFC026C129813A81C901880FEA
:10172000991F820F931FFC01E358FE4F8081813087
:10173000F1F4AAE3B0E0EAE3F0E08081482F2981E8
:101740003A81C901880F991F820F931FFC01E45849
:10175000FE4F8081282F30E081E090E0022E02C011
:10176000880F991F0A94E2F7842B8C93FBC0AAE39D
:10177000B0E0EAE3F0E08081482F29813A81C90195
:10178000880F991F820F931FFC01E458FE4F808140
:10179000282F30E081E090E0022E02C0880F991FD0
:1017A0000A94E2F7809584238C93DCC029813A81E6
:1017B000C901880F991F820F931FFC01E358FE4F48
:1017C00080818130F1F4A7E3B0E0E7E3F0E08081CD
:1017D000482F29813A81C901880F991F820F931FD1
:1017E000FC01E458FE4F8081282F30E081E090E03A
:1017F000022E02C0880F991F0A94E2F7842B8C9363
:10180000B1C0A7E3B0E0E7E3F0E08081482F298191
:101810003A81C901880F991F820F931FFC01E45878
:10182000FE4F8081282F30E081E090E0022E02C040
:10183000880F991F0A94E2F7809584238C9392C0B5
:1018400029813A81C901880F991F820F931FFC01DA
:10185000E358FE4F80818130F1F4A4E3B0E0E4E38B
:10186000F0E08081482F29813A81C901880F991FB2
:10187000820F931FFC01E458FE4F8081282F30E037
:1018800081E090E0022E02C0880F991F0A94E2F7CF
:10189000842B8C9367C0A4E3B0E0E4E3F0E08081A4
:1018A000482F29813A81C901880F991F820F931F00
:1018B000FC01E458FE4F8081282F30E081E090E069
:1018C000022E02C0880F991F0A94E2F780958423A4
:1018D0008C9348C029813A81C901880F991F820FD2
:1018E000931FFC01E358FE4F80818130F1F4A1E3A6
:1018F000B0E0E1E3F0E08081482F29813A81C9011D
:10190000880F991F820F931FFC01E458FE4F8081BE
:10191000282F30E081E090E0022E02C0880F991F4E
:101920000A94E2F7842B8C931DC0A1E3B0E0E1E3BD
:10193000F0E08081482F29813A81C901880F991FE1
:10194000820F931FFC01E458FE4F8081282F30E066
:1019500081E090E002C0880F991F2A95E2F78095F8
:1019600084238C9389819A8101969A83898320911B
:101970009F013091A00189819A81821793070CF40D
:101980009FCE0F900F900F900F90CF91DF91089501
:101990000F931F93DF93CF93CDB7DEB7C156D040DF
:1019A0000FB6F894DEBF0FBECDBFFE01EF59FF4F5B
:1019B000808389E061E00E94E7098AE060E00E949C
:1019C000E709FE01EF59FF4F808182958F70882FC4
:1019D00090E081709070882329F084E061E00E949B
:1019E000E70904C084E060E00E94E709FE01EF59C6
:1019F000FF4F8081829586958770882F90E0817057
:101A00009070882329F085E061E00E94E70904C016
:101A100085E060E00E94E709FE01EF59FF4F8081F9
:101A20008295869586958370882F90E0817090705E
:101A3000882329F086E061E00E94E70904C086E07F
:101A400060E00E94E709FE01EF59FF4F8081882383
:101A50002CF487E061E00E94E70904C087E060E0C1
:101A60000E94E7098BE061E00E94E709FE01E35A6A
:101A7000FF4F80E090E0A0E2B1E480839183A283F5
:101A8000B3838E01075A1F4FFE01E35AFF4F608157
:101A90007181828193812BEA3AEA4AEA50E40E94FA
:101AA0001F02DC01CB01F80180839183A283B38301
:101AB000FE01E75AFF4F608171818281938120E0AE
:101AC00030E040E85FE30E942504882334F4FE01FF
:101AD000E85AFF4F81E08083E0C0FE01E75AFF4FE4
:101AE000608171818281938120E030E04FE753E48F
:101AF0000E94C50318160CF0C0C0FE01E35AFF4F48
:101B0000608171818281938120E030E04AE754E472
:101B10000E941903DC01CB01FE01EC5AFF4F8083C8
:101B20009183A283B3838E01005B1F4FFE01EC5AA9
:101B3000FF4F608171818281938120E030E04AE72C
:101B400055E40E941F02DC01CB01F80180839183E0
:101B5000A283B383FE01E05BFF4F608171818281CC
:101B6000938120E030E040E85FE30E942504882371
:101B700044F4FE01E25BFF4F81E090E091838083BB
:101B800064C0FE01E05BFF4F6081718182819381BF
:101B900020E03FEF4FE757E40E94C50318160CF012
:101BA00043C0FE01EC5AFF4F6081718182819381B5
:101BB00020E030E040E251E40E941F02DC01CB0152
:101BC0008E01025B1F4FBC01CD010E944900DC0168
:101BD000CB01F801918380831FC0FE01E45BFF4FBE
:101BE00080E991E091838083FE01E45BFF4F808177
:101BF00091810197F1F7FE01E45BFF4F91838083B0
:101C0000DE01A25BBF4FFE01E25BFF4F808191814D
:101C1000019711969C938E93FE01E25BFF4F8081AA
:101C200091810097D1F64BC08E01025B1F4FFE01E0
:101C3000E05BFF4F60817181828193810E94490046
:101C4000DC01CB01F80191838083DE01A65BBF4FED
:101C5000FE01E25BFF4F8081918111969C938E93F0
:101C6000FE01E65BFF4F808191810197F1F7FE0154
:101C7000E65BFF4F9183808322C08E01085A1F4F7D
:101C8000FE01E75AFF4F60817181828193810E943A
:101C90004900DC01CB01F8018083DE01A75BBF4F67
:101CA000FE01E85AFF4F80818C93FE01E75BFF4FF6
:101CB00080818A95F1F7FE01E75BFF4F80838BE01F
:101CC00060E00E94E709FE01EB5BFF4F80E090E0DF
:101CD000A8E4B3E480839183A283B3838E010F5B76
:101CE0001F4FFE01EB5BFF4F608171818281938109
:101CF0002BEA3AEA4AEA50E40E941F02DC01CB01D7
:101D0000F80180839183A283B383FE01EF5BFF4FD1
:101D1000608171818281938120E030E040E85FE35F
:101D20000E942504882334F481E0FE01E05CFF4F2B
:101D300080839DC0FE01EF5BFF4F608171818281D6
:101D4000938120E030E04FE753E40E94C50318166A
:101D50000CF07EC0FE01EB5BFF4F608171818281E0
:101D6000938120E030E04AE754E40E941903DC014B
:101D7000CB018CAF9DAFAEAFBFAF6CAD7DAD8EADC7
:101D80009FAD20E030E04AE755E40E941F02DC01ED
:101D9000CB0188AF99AFAAAFBBAF68AD79AD8AADC3
:101DA0009BAD20E030E040E85FE30E9425048823FB
:101DB0002CF481E090E09FAB8EAB3FC068AD79AD75
:101DC0008AAD9BAD20E03FEF4FE757E40E94C5038B
:101DD00018164CF56CAD7DAD8EAD9FAD20E030E0BA
:101DE00040E251E40E941F02DC01CB01BC01CD01A5
:101DF0000E944900DC01CB019FAB8EAB0FC080E994
:101E000091E09DAB8CAB8CA99DA90197F1F79DAB9F
:101E10008CAB8EA99FA901979FAB8EAB8EA99FA972
:101E2000009769F72DC068AD79AD8AAD9BAD0E9472
:101E30004900DC01CB019FAB8EAB8EA99FA99BAB68
:101E40008AAB8AA99BA90197F1F79BAB8AAB18C013
:101E5000FE01EF5BFF4F60817181828193810E945F
:101E60004900DC01CB01FE01E05CFF4F8083FE01F5
:101E7000E05CFF4F808189AB89A98A95F1F789AB36
:101E8000FE01EF59FF4F8081882F90E081709070A4
:101E9000882329F084E061E00E94E70904C084E01F
:101EA00060E00E94E709FE01EF59FF4F80818695AF
:101EB000882F90E081709070882329F085E061E0A0
:101EC0000E94E70904C085E060E00E94E709FE0186
:101ED000EF59FF4F808186958695882F90E081701D
:101EE0009070882329F086E061E00E94E70904C031
:101EF00086E060E00E94E709FE01EF59FF4F808114
:101F0000869586958695882F90E0817090708823BD
:101F100029F087E061E00E94E70904C087E060E003
:101F20000E94E7098BE061E00E94E70980E090E011
:101F3000A0E2B1E48DA79EA7AFA7B8AB6DA57EA523
:101F40008FA598A92BEA3AEA4AEA50E40E941F02B8
:101F5000DC01CB0189A79AA7ABA7BCA769A57AA585
:101F60008BA59CA520E030E040E85FE30E942504BB
:101F700088231CF481E088A791C069A57AA58BA568
:101F80009CA520E030E04FE753E40E94C5031816FB
:101F90000CF07BC06DA57EA58FA598A920E030E050
:101FA0004AE754E40E941903DC01CB018CA39DA3F2
:101FB000AEA3BFA36CA17DA18EA19FA120E030E0C4
:101FC0004AE755E40E941F02DC01CB0188A399A3D4
:101FD000AAA3BBA368A179A18AA19BA120E030E0BC
:101FE00040E85FE30E94250488232CF481E090E020
:101FF0009F8F8E8F3FC068A179A18AA19BA120E00D
:102000003FEF4FE757E40E94C50318164CF56CA14B
:102010007DA18EA19FA120E030E040E251E40E942A
:102020001F02DC01CB01BC01CD010E944900DC0193
:10203000CB019F8F8E8F0FC080E991E09D8F8C8F99
:102040008C8D9D8D0197F1F79D8F8C8F8E8D9F8D3F
:1020500001979F8F8E8F8E8D9F8D009769F724C07B
:1020600068A179A18AA19BA10E944900DC01CB0152
:102070009F8F8E8F8E8D9F8D9B8F8A8F8A8D9B8D4C
:102080000197F1F79B8F8A8F0FC069A57AA58BA561
:102090009CA50E944900DC01CB0188A788A5898FF7
:1020A000898D8A95F1F7898F8BE060E00E94E709BE
:1020B00080E090E0A8E4B3E48D8B9E8BAF8BB88F6B
:1020C0006D897E898F89988D2BEA3AEA4AEA50E435
:1020D0000E941F02DC01CB01898B9A8BAB8BBC8BDE
:1020E00069897A898B899C8920E030E040E85FE348
:1020F0000E94250488231CF481E0888B91C06989A3
:102100007A898B899C8920E030E04FE753E40E9474
:10211000C50318160CF07BC06D897E898F89988D58
:1021200020E030E04AE754E40E941903DC01CB01CF
:102130008C879D87AE87BF876C857D858E859F85C3
:1021400020E030E04AE755E40E941F02DC01CB01A9
:1021500088879987AA87BB87688579858A859B85C3
:1021600020E030E040E85FE30E94250488232CF45F
:1021700081E090E09F838E833FC0688579858A8562
:102180009B8520E03FEF4FE757E40E94C5031816F8
:102190004CF56C857D858E859F8520E030E040E2A2
:1021A00051E40E941F02DC01CB01BC01CD010E9461
:1021B0004900DC01CB019F838E830FC080E991E051
:1021C0009D838C838C819D810197F1F79D838C8306
:1021D0008E819F8101979F838E838E819F8100973F
:1021E00069F724C0688579858A859B850E944900A6
:1021F000DC01CB019F838E838E819F819B838A83A9
:102200008A819B810197F1F79B838A830FC069893B
:102210007A898B899C890E944900DC01CB01888BDB
:102220008889898389818A95F1F78983CF59DF4F1E
:102230000FB6F894DEBF0FBECDBFCF91DF911F91D7
:102240000F9108950F931F93DF93CF93CDB7DEB710
:10225000C156D0400FB6F894DEBF0FBECDBFFE0111
:10226000EF59FF4F808389E060E00E94E7098AE030
:1022700060E00E94E709FE01EF59FF4F80818295DF
:102280008F70882F90E081709070882329F084E00F
:1022900061E00E94E70904C084E060E00E94E70971
:1022A000FE01EF59FF4F8081829586958770882FB8
:1022B00090E081709070882329F085E061E00E94B1
:1022C000E70904C085E060E00E94E709FE01EF59DC
:1022D000FF4F80818295869586958370882F90E048
:1022E00081709070882329F086E061E00E94E70900
:1022F00004C086E060E00E94E709FE01EF59FF4F4D
:10230000808188232CF487E061E00E94E70904C003
:1023100087E060E00E94E7098BE061E00E94E70946
:10232000FE01E35AFF4F80E090E0A0E2B1E4808339
:102330009183A283B3838E01075A1F4FFE01E35A94
:10234000FF4F60817181828193812BEA3AEA4AEAE8
:1023500050E40E941F02DC01CB01F80180839183CD
:10236000A283B383FE01E75AFF4F608171818281AE
:10237000938120E030E040E85FE30E942504882359
:1023800034F4FE01E85AFF4F81E08083E0C0FE0193
:10239000E75AFF4F608171818281938120E030E0B4
:1023A0004FE753E40E94C50318160CF0C0C0FE01AD
:1023B000E35AFF4F608171818281938120E030E098
:1023C0004AE754E40E941903DC01CB01FE01EC5AF8
:1023D000FF4F80839183A283B3838E01005B1F4FE5
:1023E000FE01EC5AFF4F608171818281938120E070
:1023F00030E04AE755E40E941F02DC01CB01F801FE
:1024000080839183A283B383FE01E05BFF4F6081F1
:1024100071818281938120E030E040E85FE30E9497
:102420002504882344F4FE01E25BFF4F81E090E045
:102430009183808364C0FE01E05BFF4F6081718106
:102440008281938120E03FEF4FE757E40E94C5036C
:1024500018160CF043C0FE01EC5AFF4F60817181E9
:102460008281938120E030E040E251E40E941F022B
:10247000DC01CB018E01025B1F4FBC01CD010E942C
:102480004900DC01CB01F801918380831FC0FE016C
:10249000E45BFF4F80E991E091838083FE01E45B80
:1024A000FF4F808191810197F1F7FE01E45BFF4FBF
:1024B00091838083DE01A25BBF4FFE01E25BFF4F91
:1024C00080819181019711969C938E93FE01E25B2E
:1024D000FF4F808191810097D1F64BC08E01025B46
:1024E0001F4FFE01E05BFF4F60817181828193810C
:1024F0000E944900DC01CB01F80191838083DE0159
:10250000A65BBF4FFE01E25BFF4F80819181119678
:102510009C938E93FE01E65BFF4F80819181019732
:10252000F1F7FE01E65BFF4F9183808322C08E01AD
:10253000085A1F4FFE01E75AFF4F60817181828167
:1025400093810E944900DC01CB01F8018083DE0108
:10255000A75BBF4FFE01E85AFF4F80818C93FE01BD
:10256000E75BFF4F80818A95F1F7FE01E75BFF4F44
:1025700080838BE060E00E94E709FE01EB5BFF4F88
:1025800080E090E0AAEFB4E480839183A283B383D8
:102590008E010F5B1F4FFE01EB5BFF4F608171816E
:1025A000828193812BEA3AEA4AEA50E40E941F02B0
:1025B000DC01CB01F80180839183A283B383FE0108
:1025C000EF5BFF4F608171818281938120E030E079
:1025D00040E85FE30E942504882334F481E0FE0193
:1025E000E05CFF4F80839DC0FE01EF5BFF4F608189
:1025F00071818281938120E030E04FE753E40E94B3
:10260000C50318160CF07EC0FE01EB5BFF4F608126
:1026100071818281938120E030E04AE754E40E9496
:102620001903DC01CB018CAF9DAFAEAFBFAF6CAD7A
:102630007DAD8EAD9FAD20E030E04AE755E40E94CD
:102640001F02DC01CB0188AF99AFAAAFBBAF68AD69
:1026500079AD8AAD9BAD20E030E040E85FE30E94B9
:10266000250488232CF481E090E09FAB8EAB3FC023
:1026700068AD79AD8AAD9BAD20E03FEF4FE757E401
:102680000E94C50318164CF56CAD7DAD8EAD9FADA7
:1026900020E030E040E251E40E941F02DC01CB0167
:1026A000BC01CD010E944900DC01CB019FAB8EAB88
:1026B0000FC080E991E09DAB8CAB8CA99DA90197DF
:1026C000F1F79DAB8CAB8EA99FA901979FAB8EAB09
:1026D0008EA99FA9009769F72DC068AD79AD8AAD25
:1026E0009BAD0E944900DC01CB019FAB8EAB8EA954
:1026F0009FA99BAB8AAB8AA99BA90197F1F79BABDA
:102700008AAB18C0FE01EF5BFF4F6081718182814F
:1027100093810E944900DC01CB01FE01E05CFF4F88
:102720008083FE01E05CFF4F808189AB89A98A9597
:10273000F1F789ABFE01EF59FF4F8081882F90E0C0
:1027400081709070882329F084E061E00E94E7099D
:1027500004C084E060E00E94E709FE01EF59FF4FEA
:1027600080818695882F90E081709070882329F071
:1027700085E061E00E94E70904C085E060E00E9416
:10278000E709FE01EF59FF4F808186958695882FD6
:1027900090E081709070882329F086E061E00E94CB
:1027A000E70904C086E060E00E94E709FE01EF59F6
:1027B000FF4F8081869586958695882F90E0817061
:1027C0009070882329F087E061E00E94E70904C047
:1027D00087E060E00E94E7098BE061E00E94E70982
:1027E00080E090E0A0E2B1E48DA79EA7AFA7B8ABD0
:1027F0006DA57EA58FA598A92BEA3AEA4AEA50E48E
:102800000E941F02DC01CB0189A79AA7ABA7BCA736
:1028100069A57AA58BA59CA520E030E040E85FE3A0
:102820000E94250488231CF481E088A791C069A533
:102830007AA58BA59CA520E030E04FE753E40E94E9
:10284000C50318160CF07BC06DA57EA58FA598A9B1
:1028500020E030E04AE754E40E941903DC01CB0198
:102860008CA39DA3AEA3BFA36CA17DA18EA19FA1AC
:1028700020E030E04AE755E40E941F02DC01CB0172
:1028800088A399A3AAA3BBA368A179A18AA19BA1AC
:1028900020E030E040E85FE30E94250488232CF428
:1028A00081E090E09F8F8E8F3FC068A179A18AA1BF
:1028B0009BA120E03FEF4FE757E40E94C5031816A5
:1028C0004CF56CA17DA18EA19FA120E030E040E2FB
:1028D00051E40E941F02DC01CB01BC01CD010E942A
:1028E0004900DC01CB019F8F8E8F0FC080E991E002
:1028F0009D8F8C8F8C8D9D8D0197F1F79D8F8C8F87
:102900008E8D9F8D01979F8F8E8F8E8D9F8D0097BF
:1029100069F724C068A179A18AA19BA10E944900FE
:10292000DC01CB019F8F8E8F8E8D9F8D9B8F8A8F29
:102930008A8D9B8D0197F1F79B8F8A8F0FC069A5B8
:102940007AA58BA59CA50E944900DC01CB0188A734
:1029500088A5898F898D8A95F1F7898F8BE060E052
:102960000E94E70980E090E0AAEFB4E48D8B9E8B93
:10297000AF8BB88F6D897E898F89988D2BEA3AEA63
:102980004AEA50E40E941F02DC01CB01898B9A8B3A
:10299000AB8BBC8B69897A898B899C8920E030E07C
:1029A00040E85FE30E94250488231CF481E0888BC3
:1029B00091C069897A898B899C8920E030E04FE752
:1029C00053E40E94C50318160CF07BC06D897E8904
:1029D0008F89988D20E030E04AE754E40E94190383
:1029E000DC01CB018C879D87AE87BF876C857D8599
:1029F0008E859F8520E030E04AE755E40E941F0263
:102A0000DC01CB0188879987AA87BB876885798590
:102A10008A859B8520E030E040E85FE30E94250442
:102A200088232CF481E090E09F838E833FC06885EB
:102A300079858A859B8520E03FEF4FE757E40E9428
:102A4000C50318164CF56C857D858E859F8520E025
:102A500030E040E251E40E941F02DC01CB01BC01E6
:102A6000CD010E944900DC01CB019F838E830FC002
:102A700080E991E09D838C838C819D810197F1F7A2
:102A80009D838C838E819F8101979F838E838E810E
:102A90009F81009769F724C0688579858A859B8521
:102AA0000E944900DC01CB019F838E838E819F8130
:102AB0009B838A838A819B810197F1F79B838A8319
:102AC0000FC069897A898B899C890E944900DC0141
:102AD000CB01888B8889898389818A95F1F78983DD
:102AE000CF59DF4F0FB6F894DEBF0FBECDBFCF91E9
:102AF000DF911F910F910895DF93CF93CDB7DEB78C
:102B00002E970FB6F894DEBF0FBECDBF80E090E0E9
:102B1000A0EAB1E48B879C87AD87BE876B857C85F7
:102B20008D859E8520E030E04AE755E40E941F0233
:102B3000DC01CB018F839887A987BA876F8178855D
:102B400089859A8520E030E040E85FE30E94250413
:102B500088232CF481E090E09E838D833FC06F81B9
:102B6000788589859A8520E03FEF4FE757E40E94FA
:102B7000C50318164CF56B857C858D859E8520E0F8
:102B800030E040E251E40E941F02DC01CB01BC01B5
:102B9000CD010E944900DC01CB019E838D830FC0D3
:102BA00080E991E09C838B838B819C810197F1F775
:102BB0009C838B838D819E8101979E838D838D81E4
:102BC0009E81009769F714C06F81788589859A8501
:102BD0000E944900DC01CB019E838D838D819E8103
:102BE0009A83898389819A810197F1F79A838983EE
:102BF00083E30E94221182E30E94221188E20E9454
:102C000022118FE00E94221186E00E94221181E0B1
:102C10000E9422112E960FB6F894DEBF0FBECDBFD4
:102C2000CF91DF910895DF93CF9300D000D0CDB73F
:102C3000DEB79C838B831A8219820FC029813A8167
:102C40008B819C81FC01E20FF31F80810E94C80CE4
:102C500089819A8101969A83898329813A818B811E
:102C60009C81FC01E20FF31F8081882339F70F90CC
:102C70000F900F900F90CF91DF910895DF93CF9336
:102C800000D000D0CDB7DEB78B836C831A82198257
:102C90008B81882329F480E890E09A83898307C098
:102CA0008B81813021F480EC90E09A8389838C8140
:102CB000803148F48C81282F30E089819A81820FFD
:102CC000931F9A83898389810E9422110F900F900C
:102CD0000F900F90CF91DF910895DF93CF93CDB7F1
:102CE000DEB781E00E94221180E80E942211CF917C
:102CF000DF910895CF92DF92EF92FF920F931F938F
:102D0000DF93CF93CDB7DEB7E8970FB6F894DEBF69
:102D10000FBECDBF0E94570B0E947C070E947C15FE
:102D20000E94C90780E80E94221180E690E00E947C
:102D3000131680EC0E94221186E690E00E94131682
:102D40007CC0A8E4B0E0E8E4F0E0808191810196E5
:102D500011969C938E9380E090E0A0EAB0E48DAB56
:102D60009EABAFABB8AF6DA97EA98FA998AD20E09F
:102D700030E04AE755E40E941F02DC01CB0189AB39
:102D80009AABABABBCAB69A97AA98BA99CA920E093
:102D900030E040E85FE30E94250488232CF481E0C2
:102DA00090E098AB8FA73FC069A97AA98BA99CA98D
:102DB00020E03FEF4FE757E40E94C50318164CF59B
:102DC0006DA97EA98FA998AD20E030E040E251E4E2
:102DD0000E941F02DC01CB01BC01CD010E94490011
:102DE000DC01CB0198AB8FA70FC080E991E09EA7D3
:102DF0008DA78DA59EA50197F1F79EA78DA78FA5FD
:102E000098A9019798AB8FA78FA598A9009769F704
:102E100014C069A97AA98BA99CA90E944900DC0168
:102E2000CB0198AB8FA78FA598A99CA78BA78BA543
:102E30009CA50197F1F79CA78BA7E8E4F0E08081BF
:102E4000918123E08F3F920708F47BCF80E090E0F0
:102E5000AAE7B4E48FA398A7A9A7BAA76FA178A5FA
:102E600089A59AA520E030E04AE755E40E941F02B8
:102E7000DC01CB018BA39CA3ADA3BEA36BA17CA162
:102E80008DA19EA120E030E040E85FE30E94250490
:102E900088232CF481E090E09AA389A33FC06BA122
:102EA0007CA18DA19EA120E03FEF4FE757E40E9457
:102EB000C50318164CF56FA178A589A59AA520E041
:102EC00030E040E251E40E941F02DC01CB01BC0172
:102ED000CD010E944900DC01CB019AA389A30FC058
:102EE00080E991E098A38F8F8F8D98A10197F1F7DA
:102EF00098A38F8F89A19AA101979AA389A389A1E9
:102F00009AA1009769F791C06BA17CA18DA19EA1A8
:102F10000E944900DC01CB019AA389A389A19AA14F
:102F20009E8F8D8F8D8D9E8D0197F1F79E8F8D8F4A
:102F30007CC0A8E4B0E0E8E4F0E0808191810197F2
:102F400011969C938E9380E090E0A0EAB0E4898F84
:102F50009A8FAB8FBC8F698D7A8D8B8D9C8D20E085
:102F600030E04AE755E40E941F02DC01CB018D8B63
:102F70009E8BAF8BB88F6D897E898F89988D20E06D
:102F800030E040E85FE30E94250488232CF481E0D0
:102F900090E09C8B8B8B3FC06D897E898F89988D4B
:102FA00020E03FEF4FE757E40E94C50318164CF5A9
:102FB000698D7A8D8B8D9C8D20E030E040E251E46C
:102FC0000E941F02DC01CB01BC01CD010E9449001F
:102FD000DC01CB019C8B8B8B0FC080E991E09A8B3D
:102FE000898B89899A890197F1F79A8B898B8B89CB
:102FF0009C8901979C8B8B8B8B899C89009769F7A7
:1030000014C06D897E898F89988D0E944900DC01EA
:10301000CB019C8B8B8B8B899C89988B8F878F8521
:1030200098890197F1F7988B8F87E8E4F0E0808129
:103030009181009709F07DCF80E090E0AAE7B4E4A9
:103040008B879C87AD87BE876B857C858D859E85AC
:1030500020E030E04AE755E40E941F02DC01CB018A
:103060008F839887A987BA876F81788589859A85A4
:1030700020E030E040E85FE30E94250488232CF440
:1030800081E090E09E838D833FC06F817885898544
:103090009A8520E03FEF4FE757E40E94C5031816DA
:1030A0004CF56B857C858D859E8520E030E040E287
:1030B00051E40E941F02DC01CB01BC01CD010E9442
:1030C0004900DC01CB019E838D830FC080E991E034
:1030D0009C838B838B819C810197F1F79C838B83ED
:1030E0008D819E8101979E838D838D819E81009726
:1030F00069F714C06F81788589859A850E94490097
:10310000DC01CB019E838D838D819E819A8389838F
:1031100089819A810197F1F79A8389838091BE0111
:103120009091BF012091A4013091A5014091BA0175
:103130005091BB01E091B801F091B901A091BC019F
:10314000B091BD010F2EF4EBEF2EF1E0FF2EF02D2C
:103150000F2EF7ECCF2EF1E0DF2EF02DB9019F01FD
:103160008D010E94DA078091B4019091B501A09180
:10317000B601B091B70126EA31E0BC01CD01A90149
:103180002AE030E00E9438078091C7019091C80181
:10319000A091C901B091CA01BC01CD010E945504A2
:1031A000DC01CB0120EC31E0B9014AE050E00E94A3
:1031B000170780E066E00E943E1686EA91E00E94D2
:1031C00013168CE690E00E94131680EC0E942211E8
:1031D00080E066E00E943E1680EC91E00E941316AB
:1031E00080E790E00E94131628CEA1E21A2EAA1BB7
:1031F000BB1BFD010DC0AA1FBB1FEE1FFF1FA217A7
:10320000B307E407F50720F0A21BB30BE40BF50BA3
:10321000661F771F881F991F1A9469F7609570952C
:10322000809590959B01AC01BD01CF0108952F922F
:103230003F924F925F926F927F928F929F92AF9246
:10324000BF92CF92DF92EF92FF920F931F93CF9393
:10325000DF93CDB7DEB7CA1BDB0B0FB6F894DEBF2A
:103260000FBECDBF09942A88398848885F846E8450
:103270007D848C849B84AA84B984C884DF80EE809A
:10328000FD800C811B81AA81B981CE0FD11D0FB6A3
:10329000F894DEBF0FBECDBFED010895AA1BBB1B86
:1032A00051E107C0AA1FBB1FA617B70710F0A61B46
:1032B000B70B881F991F5A95A9F780959095BC0167
:0832C000CD010895F894FFCF41
:1032C800467265713D00447574793D0020487A0066
:1032D8002025000000000000000000000102020399
:1032E8000303030404040404040404050505050594
:1032F8000505050505050505050505060606060671
:103308000606060606060606060606060606060655
:103318000606060606060606060606070707070740
:103328000707070707070707070707070707070725
:103338000707070707070707070707070707070715
:103348000707070707070707070707070707070705
:1033580007070707070707070707070808080808F0
:1033680008080808080808080808080808080808D5
:1033780008080808080808080808080808080808C5
:1033880008080808080808080808080808080808B5
:1033980008080808080808080808080808080808A5
:1033A8000808080808080808080808080808080895
:1033B8000808080808080808080808080808080885
:1033C8000808080808080808080808080808080875
:1033D8000808080808080808080808030401000184
:1033E80000030600000401000600000501000601B4
:1033F8000007010001000101010102010103010CA4
:023408000000C2
:00000001FF
